:100000000C9445050C946D050C946D050C946D05D0
:100010000C946D050C946D050C946D050C946F0596
:100020000C946D050C946D050C946D050C94E11207
:100030000C946D050C946D050C946D050C946D0578
:100040000C9470240C946D050C9464270C949627E2
:100050000C946D050C946D050C946D050C946D0558
:100060000C947E110C946D05E715EB15AE15B115CA
:10007000B415B815BC15BF15C315C615C915CC15D3
:10008000CF15D315D715DB15DE15E115036EDB365D
:100090003D9A9999993DABAAAA2A3E000000803F5B
:1000A000084AD73B3BCE016E84BCBFFDC12F3D6CDF
:1000B00074319ABD56833DDA3D00C77F11BED9E445
:1000C000BB4C3E916BAAAABE000000803F072C7A71
:1000D000A5BA6CC590DA3B9365FC8BBC53F810FD58
:1000E0003C5692834DBD879D3AB63DCBC9BF5BBEA2
:1000F00073DA0FC93F002900444D5020496E6974DE
:1001000069616C697A6174696F6E206661696C659A
:10011000642028636F64652000456E61626C696EBF
:100120006720444D502E2E2E00496E697469616C13
:10013000697A696E6720444D502E2E2E004D505521
:100140003630353020636F6E6E656374696F6E2074
:100150006661696C6564004D5055363035302063FA
:100160006F6E6E656374696F6E207375636365731C
:100170007366756C0054657374696E672064657688
:1001800069636520636F6E6E656374696F6E732E4D
:100190002E2E00496E697469616C697A696E6720F8
:1001A00049324320646576696365732E2E2E000103
:1001B000B202FFFF0190040923A135016A02060083
:1001C0000160080000000000000000006004400022
:1001D0000000016202000000600400400000037B98
:1001E000034CCD6C03AB0336567600680402CB4754
:1001F000A202180400058BC1010C040000000003DA
:100200007F060CC92C979797038903264666006CD6
:10021000022000024004000000000244040000002C
:100220000002480400000000024C0400000000022C
:1002300050040000000002540400000000025804B2
:1002400000000000025C040000000002BC0400008A
:10025000000001EC0400004000037F060CC92C974D
:1002600097970402030D355D040904872D353D0081
:10027000A3010000000001078601FE074105F120EF
:10028000283038077E01300746019A074704F128D5
:100290003038076C04F12830380216020001FB00E8
:1002A000003E000B00360001000200030000006564
:1002B0000054FFEF0000FA80000B128200010002E0
:1002C0000000000000000000000000000000002806
:1002D0000000FFFF4581FFFFFA72000000000000F0
:1002E00003E80000000100017FFFFFFE8001001B0A
:1002F0000000000000000000000000000000003EC0
:1003000003304000000002CAE3093E8000002000E4
:10031000000000000000400000006000000041FFFD
:10032000000000000B2A0000165500002182FD8706
:100330002650FD800000001F000000058000000026
:100340000000000100000002000000030000400067
:1003500000000000046F0002653200005EC0400033
:100360000000000000000000000000000000FB8C06
:100370006F5DFD5D08D9007C733B006C12CC3200D0
:10038000139D3200D0D632000800400001F4FFE691
:100390008079020000000000D0D600002710FB008A
:1003A000000040000000000000000000000000000D
:1003B000000100000000000001000100000000003A
:1003C000FA36FFBC308E0005FBF0FFD95BC8FFD0CA
:1003D0009ABE000010A9FFF41EB200CEBBF70000C9
:1003E000000100000004000200020200000CFFC235
:1003F00080000001800000CF80004000000000006D
:1004000000010000000000000600000000140000D1
:1004100000000000000000000000000000000000DC
:1004200000000000000000000000000000000000CC
:1004300000000000000000000000000000000000BC
:100440000000033F68B6793528BCC67ED16C8000B9
:100450000000400000000000B26A00000000000040
:1004600000000000000000003FF00000003000002D
:10047000000000000000000000000000000000007C
:10048000000000000000000000000000000000006C
:10049000254D002F706D000005AE000C02D000004D
:1004A000000000650054FFEF0000000000000000A5
:1004B00001000044000000000C00000001000000EA
:1004C00000000065000000540000FFEF0000000085
:1004D00000000000000000000000000000004000DC
:1004E00000000000000000000000000000004000CC
:1004F00000000000000000000000000000000000FC
:1005000000010000000200000000000000000000E8
:1005100000000000000000000000000000000000DB
:100520000000000000000000000000000000001BB0
:1005300000000000000000000000000000000000BB
:1005400000000000000000000000000000000000AB
:100550000000000000000000000040000000001B40
:10056000000000000000000000000000000000008B
:10057000000000000000000000000000000000007B
:10058000000000000000000000000000000000006B
:100590000000000000000000000000000000D8DCA7
:1005A000BAA2F1DEB2B8B4A88191F74A907F916AFD
:1005B000F3F9DBA8F9B0BAA080F2CE81F3C2F1C1A1
:1005C000F2C3F3CCA2B280F1C6D880BAA7DFDFDFD6
:1005D000F2A7C3CBC5B6F087A2942448703C9540DF
:1005E0006834589B78A2F183922D557DD8B1B4B868
:1005F000A1D09180F270F370F27C80A8F101B098E4
:1006000087D943D886C988BAA1F20EB89780F1A9D4
:10061000DFDFDFAADFDFDFF2AAC5CDC7A90CC92C57
:1006200097979797F1A989264666B0B4BA80ACDE51
:10063000F2CAF1B28C02A9B69800890E161EB8A9AA
:10064000B4992C547CB08AA896365676F1B9AFB4DA
:10065000B083C0B8A89711B18F98B9AFF0240844FF
:10066000106418F1A329557DAF83B593AFF000282E
:1006700050F1A3869F61A6DADEDFD9FAA38696DB66
:1006800031A6D9F8DFBAA68FC2C5C7B28CC1B8A24D
:10069000DFDFDFA3DFDFDFD8D8F1B8A8B286B498F8
:1006A0000D355DB8AA98B0872D353DB2B6BAAF8C7E
:1006B00096198F9FA70E161EB49AB8AA872C547C41
:1006C000B9A3DEDFDFA3B180F2C4CDC9F1B8A9B40C
:1006D00099830D355D89B9A32D557DB593A30E166C
:1006E0001EA92C547CB8B4B0F19783A81184A50935
:1006F00098A383F0DA240844106418D8F1A529558A
:100700007DA58595021A2E3A565A4048F9F3A3D989
:10071000F8F098832408441064189782A8F111F027
:1007200098A2240844106418DAF3DED883A5940153
:10073000D9A302F1A2C3C5C7D8F18492A24DDA2A87
:10074000D84869D92AD86855DA32D85071D932D800
:10075000705DDA3AD85879D93AD87893A34DDA2A25
:10076000D84869D92AD86855DA32D85071D932D8E0
:10077000705DDA3AD85879D93AD878A88A9AF028A8
:1007800050789EF38818F19F1D98A8D908D8C89F63
:10079000129EF315A8DA1210D8F1AFC8978734B5B6
:1007A000B994A421F3D922D8F22DF3D92AD8F2355D
:1007B000F3D932D881A4606061D961D86C6869D9F5
:1007C00069D8747071D971D8B1A384193D5DA383C0
:1007D0001A3E5E931030811011B8B0AF8F94F2DAE8
:1007E0003ED8B49AA88729DAF8D8879A35DAF8D8A3
:1007F000879A3DDAF8D8B1B9A49885022E56A5811A
:10080000000C14A397B08AF12DD928D84DD948D817
:100810006DD968D8B1840DDA0ED8A32983DA2C0EED
:10082000D8A3844983DA2C4C0ED8B8B0A88A9AF59C
:1008300020AADADFD8A840AAD0DADED8A860AADADF
:10084000D0DFD8F19786A8319B069907AB97288807
:100850009BF00C201440B8B0B4A88C9CF004285134
:10086000791D301438B282ABD0982C505078789BD8
:10087000F11AB0F08A9CA82951798B2951798A24E0
:1008800070598B2058718A4469388B3940688A6462
:1008900048318B304960A588200971584468113966
:1008A00064493019F1AC002C547CF08CA804285019
:1008B00078F1889726A85998AC8C02264666F0896C
:1008C0009CA8295179247059446938644831A98811
:1008D00009205970AB11384069A8193148608CA8BB
:1008E0003C415C207C00F187981986A86E767EA931
:1008F00099882D557D9EB9A38A228A6E8A568A5E72
:100900009FB183062646660E2E4E6E9DB8AD002C16
:10091000547CF2B18CB499B9A32D557D8191AC383A
:10092000AD3AB58391AC2DD928D84DD948D86DD9D9
:1009300068D88C9DAE29D904AED851D904AED879E7
:10094000D904D881F39DAD008DAE1981ADD901D800
:10095000F2AEDA26D88E912983A7D9ADADADADF32D
:100960002AD8D8F1B0AC89913E5E76F3AC2E2EF148
:10097000B18C5A9CAC2C2828289CAC3018A89881A3
:1009800028343C9724A728343C9C24F2B089AC91AD
:100990002C4C6C8A9B2DD9D8D851D9D8D879D9D894
:1009A000D8F19E88A331DAD8D8912DD928D84DD93D
:1009B00048D86DD968D8B18393353D8025DAD8D829
:1009C0008569DAD8D8B49381A328343CF3AB8BF88B
:1009D000A391B609B4D9ABDEFAB0879CB9A3DDF117
:1009E000A3A3A3A395F1A3A3A39DF1A3A3A3A3F200
:1009F000A3B49080F2A3A3A3A3A3A3A3A3A3A3B28E
:100A0000A3A3A3A3A3A3B087B599F1A3A3A398F12C
:100A1000A3A3A3A397A3A3A3A3F39BA3A3DCB9A717
:100A2000F1262626D8D8FF000000080002010000A9
:100A30000304070000000000000000010204081089
:100A40002040800102040810200102040810200444
:100A50000404040404040402020202020203030365
:100A6000030303000000002300260029000000000B
:100A700000250028002B0000000000240027002A89
:100A800000000A0F8110FA23C62711241FBECFEFE2
:100A9000D8E0DEBFCDBF11E0A0E0B1E0E8E4F0E6D1
:100AA00002C005900D92AE38B107D9F724E0AEE848
:100AB000B1E001C01D92A233B207E1F71AE0CAE823
:100AC000DAE004C02297FE010E94C62DC238D10789
:100AD000C9F70E940A280C9422300C9400001F923F
:100AE0000F920FB60F9211242F933F934F935F9362
:100AF0006F937F938F939F93AF93BF93EF93FF93E6
:100B00000E94FF23FF91EF91BF91AF919F918F9131
:100B10007F916F915F914F913F912F910F900FBEF9
:100B20000F901F90189561E089E00E94872561E091
:100B300088E00E94872564EF71E080E090E00E94E9
:100B4000E92469E070E083E592E00E94371468E0F0
:100B500070E080E592E00E94371464EF71E080E07D
:100B600090E00E94E9246CED75E083E592E00E943C
:100B70003D146CED75E080E592E00E943D1464EF59
:100B800071E080E090E00C94E9241092340210921D
:100B900035021092360210923702109230021092F3
:100BA00031021092320210923302109238021092E7
:100BB000390210923A0210923B02109211021092E6
:100BC0001202109213021092140210921D0210923F
:100BD0001E0210921F02109220021092190210920F
:100BE0001A0210921B0210921C021092150210920F
:100BF000160210921702109218028CED95E0909355
:100C00005903809358031092550310925403909304
:100C1000570380935603109253031092520310927D
:100C2000040210920302109202021092010210922A
:100C3000FD011092FE011092FF011092000210922D
:100C40004E0310924F0310925003109251031092D2
:100C50000D0210920E0210920F02109210021092CA
:100C6000090210920A0210920B0210920C021092CA
:100C70002402109223021092260210922502109252
:100C80005D0310925C0310922202109221021092D6
:100C900005021092060210920702109208020895AF
:100CA000CF92DF92EF92FF920E944C2A6B017C015F
:100CB00020E030E0A9010E94CA2C1816ECF420E0D4
:100CC00030E044E353E4C701B6010E942A2B87FDBC
:100CD00026C020E030E044E353E4C701B6010E949F
:100CE000CA2C18164CF4A701960160E070E084EB62
:100CF00093E40E944C2A2EC020E030E0A901C701F5
:100D0000B6010E942A2B87FF21C020E030E044E397
:100D100053ECC701B6010E94CA2C18161CF4C70177
:100D2000B60112C020E030E044E353ECC701B60145
:100D30000E942A2B87FF0AC020E030E044EB53E4F6
:100D4000C701B6010E944D2A905804C060E070E0CF
:100D500084E393E4FF90EF90DF90CF900895CF92DB
:100D6000DF92EF92FF92CF93DF936B017C0120E043
:100D700030E0A9010E94CA2C18161CF0C0E0D0E097
:100D80005AC020E030E040E050E4C701B6010E94C4
:100D90002A2B87FD3FC020E030E040EA50E4C70145
:100DA000B6010E942A2B87FD38C020E030E040EEDB
:100DB00050E4C701B6010E942A2B87FD31C020E014
:100DC00030E040E151E4C701B6010E942A2B87FDC3
:100DD0002AC020E030E040E351E4C701B6010E94A0
:100DE0002A2B87FD23C020E030E040EA51E4C70110
:100DF000B6010E942A2B87FD1CC020E030E040EAAB
:100E000051E4C701B6010E94CA2C87FDB7CFC0E0EC
:100E1000D5E011C0CCEDD5E00EC0C4EBD5E00BC0E1
:100E2000CCE8D5E008C0C4E6D5E005C0CCE3D5E009
:100E300002C0C4E1D5E020E030E0A901C701B6015D
:100E40000E942A2B87FF5BC020E030E040E050EC9E
:100E5000C701B6010E94CA2C18160CF43FC020E04E
:100E600030E040EA50ECC701B6010E94CA2C1816C7
:100E7000C4F120E030E040EE50ECC701B6010E9422
:100E8000CA2C18168CF120E030E040E151ECC7018B
:100E9000B6010E94CA2C181654F120E030E040E35D
:100EA00051ECC701B6010E94CA2C18161CF120E0B3
:100EB00030E040EA51ECC701B6010E94CA2C181676
:100EC000E4F020E030E040EA51ECC701B6010E94B6
:100ED0002A2B1816A4F0C8EBD6E011C0CCEDD5E053
:100EE0000EC0C4E0D6E00BC0CCE2D6E008C0C4E53A
:100EF000D6E005C0CCE7D6E002C0C4EAD6E0CE0119
:100F0000DF91CF91FF90EF90DF90CF90089587E62B
:100F100092E00E94EF0F40E85AE166E070E087E659
:100F200092E00E94F90F63E971E081E993E00E9489
:100F300087288DE392E00E94331D65E771E081E927
:100F400093E00E9487288DE392E00E94931D8823FE
:100F500019F067E571E002C06DE371E081E993E0AB
:100F60000E94872869E271E081E993E00E94872866
:100F70008DE392E00E9477208093FA016CED70E09F
:100F80008DE392E00E941D1E6CE470E08DE392E020
:100F90000E94231E6BEA7FEF8DE392E00E94291EE0
:100FA0006CEF76E08DE392E00E94171E8091FA01CB
:100FB00081111DC069E171E081E993E00E948728F9
:100FC00061E08DE392E00E942F1E8DE392E00E948B
:100FD000EC1C8093FB0181E08093FC018DE392E0A7
:100FE0000E94941C9093F9018093F801089568EF92
:100FF00070E081E993E00E9457284AE050E0609158
:10100000FA0181E993E00E94512966EF70E081E9DD
:1010100093E00C9487280E94930526E040E855E26F
:1010200060E070E081E993E00E9402276CE071E0EB
:1010300081E993E00E9499280E94870764EF71E09C
:1010400080E090E00E94E924F89460E186E592E077
:101050000E94C317882391F062E271E081E993E076
:101060000E9499286BE371E081E993E00E9499283E
:1010700064E670E080E090E00E94E92468EE73E0AE
:1010800080E090E00E94E9240E94C5050E946C2443
:101090000E943C24789460E087E00E94C02565E5CA
:1010A00071E081E993E00C9499286CED75E080E59E
:1010B00092E00E943D1462E070E080E090E00E94C7
:1010C000E92464E675E080E592E00E943D1462E068
:1010D00070E080E090E00E94E9246CED75E080E52E
:1010E00092E00C943D148F929F92AF92BF92CF9258
:1010F000DF92EF92FF920F931F9380914E03909196
:101100004F03A0915003B09151038093FD01909340
:10111000FE01A093FF01B0930002809161039091C2
:101120006203909324028093230280916E03E090E7
:101130006F03F12CE80EF11C80917003E80EF11C96
:1011400003E0E016F10421F461E087E00E94C0258D
:101150000E94BA24009138021091390220913A027B
:1011600030913B02601B710B820B930B613576440F
:101170008105910560F08091010290910202892B16
:1011800031F481E090E0909302028093010280911B
:10119000010290910202019779F520E030E0A90167
:1011A00060911102709112028091130290911402C9
:1011B0000E942A2B811110C080911D0290911E0265
:1011C000A0911F02B091200280931102909312020D
:1011D000A0931302B09314028091250290912602ED
:1011E000892B51F481E090E09093260280932502B0
:1011F00090935D0380935C0380915A0390915B030D
:10120000029789F580916D038650873360F5809150
:101210002B02811128C084E090E090935D038093BD
:101220005C0381E090E090935B0380935A0380938A
:101230002B020E94BA24609334027093350280938B
:1012400036029093370280910D0290910E02A09188
:101250000F02B09110028093090290930A02A093AA
:101260000B02B0930C02E0915C03F0915D03E4305B
:10127000F10509F04AC080912B02813009F045C088
:1012800080910D0290910E02A0910F02B091100278
:101290004091090250910A0260910B0270910C0278
:1012A0008C019D01041B150B260B370BB901A801FE
:1012B0000E521109210931090430110521053105AA
:1012C00020F521E030E030935D0320935C03F09340
:1012D0005B03E0935A034093050250930602609328
:1012E0000702709308028093090290930A02A09368
:1012F0000B02B0930C020E94BA24609334027093E4
:1013000035028093360290933702E0915C03F091AE
:101310005D03E130F105E9F580912B028130C9F5DB
:1013200040910D0250910E0260910F0270911002D7
:10133000DB01CA01CD97A109B10900910902109101
:101340000A0220910B0230910C02801B910BA20B20
:10135000B30B0497A105B105E0F485E090E090930C
:101360005D0380935C03F0935B03E0935A03409327
:10137000090250930A0260930B0270930C020E94C0
:10138000BA246093340270933502809336029093AE
:10139000370220915C0330915D0380910D029091A2
:1013A0000E02A0910F02B09110022530310509F014
:1013B00048C020912B02213009F043C0409109021E
:1013C00050910A0260910B0270910C028C019D01F8
:1013D000041B150B260B370BB901A8010091050260
:1013E000109106022091070230910802480159012C
:1013F000EAE08E0E911CA11CB11C84169506A6066F
:10140000B706F8F4015F1F4F2F4F3F4F40175107AA
:1014100062077307B0F421E030E030935D0320935E
:101420005C0322E030E030935B0320935A03109278
:101430002B02109234021092350210923602109252
:101440003702209125023091260221303105B1F476
:1014500020915C0330915D032130310579F403E084
:10146000E016F10459F421E020933C028093090234
:1014700090930A02A0930B02B0930C0240910902D0
:1014800050910A0260910B0270910C02841B950B23
:10149000A60BB70B0597A105B10590F080913C0212
:1014A000813071F480915C0390915D03019741F468
:1014B00083E090E090935D0380935C0310923C0284
:1014C00080915A0390915B03892BE9F480915C032E
:1014D00090915D0381309105B1F490935B0380930B
:1014E0005A030E94BA2460932C0270932D028093B9
:1014F0002E0290932F021092340210923502109215
:1015000036021092370280915A0390915B03019743
:10151000E1F480910D0290910E02A0910F02B09122
:1015200010020B97A105B10580F082E090E0909346
:101530005B0380935A030E94BA2460932C02709339
:101540002D0280932E0290932F0280916D0386507E
:10155000893048F485E090E090935B0380935A03D0
:101560000E9455080DC080910D0290910E02A0912D
:101570000F02B091100281399140A105B10550F7D9
:1015800080915C0390915D030397F9F480912102AF
:101590009091220281309105C1F490935D03809374
:1015A0005C03109222021092210280911D02909100
:1015B0001E02A0911F02B09120028093110290930D
:1015C0001202A0931302B093140280915C039091D5
:1015D0005D030297F9F480912102909122028130FB
:1015E0009105C1F490935D0380935C0310922202F5
:1015F0001092210280911D0290911E02A0911F0263
:10160000B09120028093110290931202A0931302D2
:10161000B093140280916003882309F490C08091F4
:10162000FC01882309F4EBC38DE392E00E94EC1CDB
:101630008093FB018DE392E00E94471D9093F70198
:101640008093F6012091FB0124FD03C08115944095
:1016500029F48DE392E00E940C1D6FC021FF6DC044
:101660004091F8015091F9018091F6019091F701B4
:101670008417950748F48DE392E00E94471D9093EC
:10168000F7018093F601ECCF66EB71E08DE392E019
:101690000E94631D8091F6019091F7012091F8015D
:1016A0003091F901821B930B9093F7018093F6011F
:1016B00046EB51E066EA71E08DE392E00E940D1B7B
:1016C00046EA51E06EE871E08DE392E00E947C1BF7
:1016D00020E030E044E353E460918E0170918F018B
:1016E00080919001909191010E94D52C2BED3FE0CB
:1016F00049E450E40E942E2B6B017C0160931D0293
:1017000070931E0280931F029093200220E030E02D
:10171000A9010E942A2B87FF10C020E030E044EB93
:1017200053E4C701B6010E944D2A60931D027093D5
:101730001E0280931F02909320021092600320915A
:1017400011023091120240911302509114026091E3
:101750001D0270911E0280911F02909120020E9432
:1017600050066093190270931A0280931B029093A3
:101770001C0220915C0330915D0322303105B9F0E9
:1017800058F42115310509F472C12130310509F0F1
:101790006EC10E94AF066DC12430310509F4F7C057
:1017A00008F47AC02530310509F41AC160C10E94DD
:1017B000BA24009134021091350220913602309102
:1017C0003702601B710B820B930B65367105810527
:1017D0009105C0F00E94BA246093340270933502E0
:1017E000809336029093370280915603909157036D
:1017F0008B31E4E09E0730F08B54910990935703AE
:10180000809356038091560390915703883E9340EE
:1018100030F488EE93E09093570380935603C09082
:101820001902D0901A02E0901B02F0901C0220E0F6
:1018300030E044EB52E4C701B6010E94CA2C1816EE
:101840000CF47EC020E030E044EB52ECC701B6015E
:101850000E942A2B87FD74C020E030E040E752E46C
:10186000C701B6010E94CA2C181654F020E030E0DF
:1018700040E752ECC701B6010E942A2B87FFFDC04A
:101880008091560390915703843115E0910708F039
:10189000F4C0855B9F4FEDC00E94BA2400913402D2
:1018A000109135022091360230913702601B710B86
:1018B000820B930B6536710581059105C0F00E947E
:1018C000BA24609334027093350280933602909369
:1018D000370280915603909157038E3927E0920783
:1018E00030F4855B9F4F909357038093560380910C
:1018F000560390915703813D974030F080ED97E07B
:101900009093570380935603C0901902D0901A0207
:10191000E0901B02F0901C0220E030E044EB52E427
:10192000C701B6010E94CA2C181654F020E030E01E
:1019300044EB52ECC701B6010E942A2B87FF07C077
:1019400081E090E0909322028093210296C020E0F3
:1019500030E040E752E4C701B6010E94CA2C1816D5
:1019600054F020E030E040E752ECC701B6010E949D
:101970002A2B87FF82C08091560390915703853AA6
:10198000E6E09E0708F479C08B54910972C00E946A
:10199000BA24009134021091350220913602309120
:1019A0003702601B710B820B930B6333710581054A
:1019B000910508F440C00E94BA24609334027093E9
:1019C00035028093360290933702809156039091AE
:1019D00057038E3907E0900770F58B5A9F4F27C049
:1019E0000E94BA24009134021091350220913602EF
:1019F00030913702601B710B820B930B63337105BF
:101A000081059105C0F00E94BA246093340270935E
:101A1000350280933602909337028091560390915D
:101A200057038B3114E0910730F08555910990935D
:101A3000570380935603C0901902D0901A02E09089
:101A40001B02F0901C0220E030E042E852E4C701A3
:101A5000B6010E94CA2C181654F020E030E042E88B
:101A600052ECC701B6010E942A2B87FF06C08CEDFD
:101A700095E0909357038093560380915A03909179
:101A80005B038230910589F130F4009709F46BC053
:101A9000019741F068C08430910509F461C008F0F5
:101AA00062C067C00E94BA240091300210913102D6
:101AB0002091320230913302601B710B820B930B29
:101AC000693C71058105910508F453C00E94BA2450
:101AD000609330027093310280933202909333020C
:101AE000809158039091590339C00E94BA24009103
:101AF0002C0210912D0220912E0230912F02601B9A
:101B0000710B820B930B643671058105910588F189
:101B10000E94BA2460932C0270932D0280932E02AF
:101B200090932F02809158039091590320912302A2
:101B3000309124022332310514F4089602C08AE35E
:101B400096E0909359038093580320915C03309161
:101B50005D03225031092230310558F40A9605C040
:101B60008FE396E002C08CED95E09093590380934B
:101B700058038091FD019091FE01A091FF01B09169
:101B800000020097A105B10541F1BC01CD016F5FD5
:101B90007F4F8F4F9F4F0E94C72B23EC35EF48E4B8
:101BA00050E40E94D52C9B01AC010E944D2A2DECE3
:101BB0003CEC4CE450E40E94D52C20E030E040EABC
:101BC00050E40E942E2B0E949B2B60930D02709379
:101BD0000E0280930F029093100280915603909111
:101BE0005703813D974030F080ED97E09093570385
:101BF000809356038091560390915703883E9340FB
:101C000030F488EE93E090935703809356038091CD
:101C10005803909159038535E6E09E0718F083E557
:101C200096E005C08436954030F484E695E09093C4
:101C30005903809358030E94BA24009127021091FF
:101C400028022091290230912A02601B710B820B1D
:101C5000930B633371058105910508F4B6C00E94AA
:101C6000BA246093270270932802809329029093EC
:101C70002A02409111025091120260911302709158
:101C8000140222E030E081E993E00E94492A6BE5EA
:101C900071E081E993E00E947A2840911D02509101
:101CA0001E0260911F027091200222E030E081E963
:101CB00093E00E94492A6BE571E081E993E00E947C
:101CC0007A284091190250911A0260911B0270917A
:101CD0001C0222E030E081E993E00E94492A6BE592
:101CE00071E081E993E00E947A2860915C03709131
:101CF0005D034AE050E081E993E00E9458296BE5DA
:101D000071E081E993E00E947A2860915A03709112
:101D10005B034AE050E081E993E00E9458296BE5BB
:101D200071E081E993E00E947A284AE050E06091F6
:101D30006D0381E993E00E9451296BE571E081E92F
:101D400093E00E947A2860915603709157034AE00D
:101D500050E081E993E00E9458296BE571E081E948
:101D600093E00E947A2860915803709159034AE0E9
:101D700050E081E993E00E9458296BE571E081E928
:101D800093E00E947A2840910D0250910E026091DA
:101D90000F02709110022AE030E081E993E00E9486
:101DA00044296BE571E081E993E00E947A28609113
:101DB0002302709124024AE050E081E993E00E94FE
:101DC000582981E993E00E9483286091580370911B
:101DD000590380E592E00E943D1460915603709192
:101DE000570383E592E01F910F91FF90EF90DF90F2
:101DF000CF90BF90AF909F908F900C943D141F9107
:101E00000F91FF90EF90DF90CF90BF90AF909F9099
:101E10008F9008956AE086E592E00E94B51783E509
:101E200092E00E949D1380E592E00E949D138DE355
:101E300092E00E94981C80E090E0A0E8BFE38093CD
:101E4000A6019093A701A093A801B093A9011092B5
:101E5000AA011092AB011092AC011092AD01109248
:101E6000AE011092AF011092B0011092B101109228
:101E7000B2011092B3011092B4011092B501109208
:101E80009A0110929B0110929C0110929D01109258
:101E90009E0110929F011092A0011092A101109238
:101EA000A2011092A3011092A4011092A50108951D
:101EB0008091970290E020919802821B91090895E9
:101EC0002091980280919702281750F4E22FF0E0B9
:101ED000E756FD4F808190E02F5F20939802089590
:101EE0008FEF9FEF0895E091980280919702E81795
:101EF00030F4F0E0E756FD4F808190E008958FEFD9
:101F00009FEF08950895CF92DF92EF92FF920F9383
:101F10001F93CF93DF937C01CB018A012091730241
:101F2000222389F0EB016B01C40ED51ECC15DD0513
:101F300069F06991D701ED91FC910190F081E02D5C
:101F4000C7010995F3CF642F0E945511C801DF9195
:101F5000CF911F910F91FF90EF90DF90CF90089558
:101F6000CF93DF931F92CDB7DEB7698320917302C1
:101F70002223D1F020917402203240F021E030E0A1
:101F8000FC013383228380E090E015C080917502CC
:101F9000E82FF0E0EA58FD4F998190838F5F80939E
:101FA00075028093740205C061E0CE0101960E9423
:101FB000551181E090E00F90DF91CF910895FC01E1
:101FC0001382128248EE53E060E070E04483558350
:101FD0006683778381E691E09183808308951092F0
:101FE00098021092970210927502109274020C944B
:101FF0008510CB01BA010C94A31081E08093730289
:1020000060939602109275021092740208950F93D5
:10201000062F21E04091740266E772E080919602FB
:102020000E94FE10109275021092740210927302B8
:102030000F9108958F929F92AF92BF92CF92DF92AD
:10204000EF92FF920F931F93CF93DF93EC01F62E45
:10205000D42E48015901EE2019F10E94FD0F1E2DCA
:10206000143008F013E01150B8F0E881F98128E04D
:10207000129FB0011124A501940104C05695479503
:10208000379527956A95D2F7CA01B9010190F08179
:10209000E02DCE010995E7CF60E0CE010E94071048
:1020A0004D2D413208F040E22C2D69E972E08F2D70
:1020B0000E94B6101092980280939702DF91CF9100
:1020C0001F910F91FF90EF90DF90CF90BF90AF9056
:1020D0009F908F900895CF92EF920F931F93C22EEF
:1020E000E12C00E010E098010E941A101F910F915E
:1020F000EF90CF90089521E00C946B1061E00C9468
:10210000071087E692E00C94DF0F1092260381E01F
:10211000809324031092230361E082E10E94C02592
:1021200061E083E10E94C025E9EBF0E080818E7FD1
:10213000808380818D7F808388E48093B80085E4EC
:102140008093BC0008959B01AC0160E074E284EFD1
:1021500090E00E94A22D2051310941095109569564
:102160004795379527952093B8000895413208F098
:1021700043C0909126039111FCCF91E090932603E8
:10218000209324032FEF2093B9021092FE02240F14
:102190002093FD029093250390912503880F892BAE
:1021A0008093250380912303813061F410922303EF
:1021B000809125038093BB008091BC0083FDF8CF04
:1021C00085EC01C085EE8093BC00809126038130B0
:1021D000E1F38091FE02841710F44091FE022FEF8C
:1021E00032E0FB01D9018A2F821B841718F48D91EC
:1021F0008193F9CF842F089580E008950F934132A1
:1022000008F04AC0909126039111FCCF92E0909380
:102210002603009324039FEF9093B9021092FE02CD
:102220004093FD02FB016FEF72E0DB019A2F961BDA
:10223000941718F491919D93F9CF109225039091E2
:102240002503880F892B80932503809123038130F8
:1022500061F410922303809125038093BB00809149
:10226000BC0083FDF8CF85EC01C085EE8093BC00F7
:10227000222321F0809126038230E1F38091B9027C
:102280008F3F61F08091B902803251F08091B902A4
:10229000803341F483E007C081E005C080E003C0E3
:1022A00082E001C084E00F910895613298F420919A
:1022B0002603243089F46093DB02FC018DED92E06B
:1022C000DC012A2F281B261718F421912D93F9CF12
:1022D00080E0089581E0089582E0089585ED80937F
:1022E000BC008091BC0084FDFCCF109226030895B1
:1022F00085EC8093BC001092260308951F920F92E4
:102300000FB60F9211242F933F934F935F936F93C8
:102310007F938F939F93AF93BF93EF93FF9380919E
:10232000B900887F803609F49EC078F5883209F4B8
:102330005DC090F4803109F456C038F4882309F464
:10234000F5C0883009F44FC0F5C0883109F44EC09B
:10235000803209F45FC0EEC0803409F46AC058F4DA
:10236000803309F457C0883309F0E4C08093B90280
:102370000E947811DFC0803509F44FC0883509F418
:102380005DC0883409F0D6C0D3C0883909F4C4C010
:10239000A8F4883709F467C038F4883609F463C0B4
:1023A000803709F460C0C6C0883809F4B5C08039E8
:1023B00009F45FC0803809F0BDC05BC0803B09F400
:1023C00083C038F4803A09F466C0883A09F47CC0C6
:1023D000B1C0803C09F4A4C0883C09F4A1C0883B8A
:1023E00009F487C0A7C08091250310C09091FE0218
:1023F0008091FD02981770F5E091FE0281E08E0F4A
:102400008093FE02F0E0E150FD4F80818093BB009D
:1024100085EC83C08093B9028BC0E091FE0281E01D
:102420008E0F8093FE028091BB00F0E0E150FD4FE3
:1024300080839091FE028091FD026BC0E091FE02CC
:1024400081E08E0F8093FE028091BB00F0E0E150AE
:10245000FD4F80838091240381116AC081E08093C5
:10246000230384EA5EC083E0809326031092BA02BD
:10247000CFCF8091BA02803208F04EC0E091BA020C
:1024800081E08E0F8093BA028091BB00F0E0E554AA
:10249000FD4F8083BDCF0E9478118091BA028032B7
:1024A00030F4E091BA02F0E0E554FD4F1082609103
:1024B000BA0270E0E0911F03F09120038BEB92E0F1
:1024C00009951092BA0236C084E0809326031092D8
:1024D000DC021092DB02E0912103F09122030995C6
:1024E0008091DB02811105C081E08093DB021092B4
:1024F000DD02E091DC0281E08E0F8093DC02F0E0EF
:10250000E352FD4F80818093BB009091DC0280916B
:10251000DB02981708F47CCF85E88093BC000AC0E2
:1025200085EC8093BC001092260304C01092B9027F
:102530000E946E11FF91EF91BF91AF919F918F918A
:102540007F916F915F914F913F912F910F900FBEAF
:102550000F901F901895CF93CFB7F89480912703D1
:10256000811127C0E9E5FAE08491E5E4FAE094916D
:10257000E82FF0E0EE0FFF1FE958F54FA591B49159
:102580008C91892321F461E08AE00E94C02561E0FA
:102590008AE00E9487258CB580618CBD8CB58064F3
:1025A0008CBD61E08DE00E94872561E08BE00E9498
:1025B0008725809127038F5F80932703CFBFCF911B
:1025C00008951F920F920FB60F9211242F933F93ED
:1025D0004F935F936F937F938F939F93AF93BF932B
:1025E000EF93FF938091290387FF05C01092850028
:1025F000109284001AC020912903332727FD3095BB
:102600008091280390E0281739077CF480912903F2
:10261000992787FD9095FC01EE0FFF1FE80FF91F2A
:10262000E65DFC4F808186FD15C0809129038F5F98
:102630008093290320912903332727FD309580912A
:10264000280390E028173907BCF4809129038C30C7
:102650005CF112C080912903992787FD9095FC01B8
:10266000EE0FFF1FE80FF91FE65DFC4F808160E071
:102670008F730E94C025D9CF8091840090918500EE
:10268000049680349C4918F480E49CE905C080914C
:10269000840090918500049690938900809388002F
:1026A0008FEF8093290338C02091840030918500FA
:1026B00080912903992787FD9095FC01EE0FFF1F5C
:1026C000E80FF91FE65DFC4F81819281820F931F15
:1026D000909389008093880080912903992787FD32
:1026E0009095FC01EE0FFF1FE80FF91FE65DFC4F10
:1026F000808186FF11C080912903992787FD9095DD
:10270000FC01EE0FFF1FE80FF91FE65DFC4F808113
:1027100061E08F730E94C025FF91EF91BF91AF914F
:102720009F918F917F916F915F914F913F912F91E9
:102730000F900FBE0F901F901895209128032C30FA
:10274000A0F431E0320F30932803FC012083822F64
:1027500090E0FC01EE0FFF1FE80FF91FE65DFC4F54
:1027600088EB9BE09283818308952FEFFC01208307
:102770000895DF92EF92FF920F931F93CF93DF9311
:10278000EC01D62E7A01890188818C3008F066C070
:1027900061E08D2D0E9487258881A82FB0E0FD0182
:1027A000EE0FFF1FEA0FFB1FE65DFC4F2D2D2F7371
:1027B0009081907C922B908360E272E06E197F0989
:1027C00077FF02C06D5F7F4F75956795759567952B
:1027D000698340E659E0401B510B57FF02C04D5F33
:1027E0005F4F55954795559547954A836CE00E94F4
:1027F000962D9CE0899FB001112420E030E0A901D2
:10280000460F571FFA01EE0FFF1FE40FF51FE65D9D
:10281000FC4F908196FD16C02F5F3F4F2C30310545
:1028200071F781110FC01092800082E080938100C7
:102830001092850010928400B19A80916F0082609E
:1028400080936F00888190E0FC01EE0FFF1FE80F7E
:10285000F91FE65DFC4F8081806480838881DF9171
:10286000CF911F910F91FF90EF90DF90089520E698
:1028700039E040E252E00C94B913FC0180818C30C5
:1028800070F5918128E830E0291B310997FD3395D7
:10289000220F331F220F331F621773077CF09281C0
:1028A00028E532E0291B310997FD3395220F331FAC
:1028B000220F331F621773070CF49B01225031095A
:1028C000220F331F4FB7F89490E0FC01EE0FFF1F6B
:1028D000E80FF91FE65DFC4F328321834FBF089557
:1028E0008EBD00000DB407FEFDCF8EB50895CF93C9
:1028F000DF93EC0160E088890E94C02580EC0E9493
:10290000701461E088890E94C0256AE070E080E070
:1029100090E0DF91CF910C94E9241F93CF93DF9344
:10292000EC01162F60E088890E94C02583E00E9498
:102930007014812F0E94701480E00E947014182F70
:1029400061E088890E94C025812FDF91CF911F917E
:102950000895CF92DF92EF92FF920F931F93CF9340
:10296000DF9300D0CDB7DEB78C01F62EE22E60E00B
:10297000FC01808949835A830E94C02583E00E941C
:1029800070148F2D0E9470144981C42E5A81D52E47
:10299000F12CFE1459F0F8E0FF1641F080E00E949F
:1029A0007014F60181936F01F394F3CF61E0F801A5
:1029B00080890F900F90DF91CF911F910F91FF9021
:1029C000EF90DF90CF900C94C025EF92FF921F9371
:1029D000CF93DF931F92CDB7DEB77C01162F60E057
:1029E000FC01808949830E94C02582E00E94701406
:1029F000812F0E9470144981842F0E94701461E01D
:102A0000F70180890F90DF91CF911F91FF90EF9098
:102A10000C94C025CF92DF92EF92FF920F931F93F9
:102A2000CF93DF9300D0CDB7DEB78C01E62EF22E28
:102A300060E0FC01808949835A830E94C02582E0BE
:102A40000E9470148E2D0E9470144981E42EC42EB1
:102A50005A81D52E8C2D8E198F1530F4F601819167
:102A60006F010E947014F6CF61E0F80180890F9029
:102A70000F90DF91CF911F910F91FF90EF90DF901A
:102A8000CF900C94C025EF92FF921F93CF93DF93CA
:102A900000D0CDB7DEB77C01162F60E0FC01808945
:102AA0002A8349830E94C02585E00E947014812FEB
:102AB0000E9470144981842F0E9470142A81822FF1
:102AC0000E94701461E0F70180890F900F90DF91F0
:102AD000CF911F91FF90EF900C94C0251F93CF933F
:102AE000DF93EC0160E088890E94C02580EA0E94A3
:102AF000701480E00E947014182F61E088890E9491
:102B0000C025812FDF91CF911F9108951F93CF93FF
:102B1000DF93EC01162F262F40EE6FE00E94431545
:102B20006FE0CE010E948D14982F907E81E091136A
:102B300001C080E0DF91CF911F9108950F931F9303
:102B4000CF93DF93EC01462F50E0FA013197E23149
:102B5000F105D8F5EC5CFF4F0C94C42D17E80FEF8E
:102B600005C017E00AEB02C015E801EF4FE036C0E0
:102B700017E00EEB49E032C017E80FEF02C017E88C
:102B80000AEF47E02BC017E80FEF0BC017E00EEB82
:102B900008C017E00DEA05C017E80AEF02C016E802
:102BA00000EF43E01BC017E80AEF41E017C015E84B
:102BB00001EF41E413C016E800EF05C014E000EA9D
:102BC00002C012E800ED40E009C081E016C017E83D
:102BD0000FEF4FE303C017E80FEF4FE16AE2CE01BA
:102BE0000E94E514402F69E2CE010E94E514412FB6
:102BF00068E2CE010E94E51480E0DF91CF911F9141
:102C00000F9108951F93CF93DF93EC0110E340E001
:102C1000612FCE010E94E51460E1610F40E0CE011A
:102C20000E94E51460E2610F40E0CE010E94E514CD
:102C30001F5F1E3361F740E060E6CE010E94E5149D
:102C400040E060E7CE01DF91CF911F910C94E51435
:102C50000F931F93CF93DF93EC01062F0E947714FD
:102C600060E8CE010E948615182F6AE070E080E0CF
:102C700090E011110CC00E94E924602FCE010E9447
:102C80009E15882339F06AE070E080E090E00E94B1
:102C9000E92428C06AE070E080E090E00E94E92426
:102CA000CE010E94021643E06BE2CE010E94E514C1
:102CB00024E044E660E6CE010E94431520E040E6B1
:102CC00060E7CE010E94431560E0CE010E948615A8
:102CD000C82F8823C1F26AE070E080E090E00E9493
:102CE000E9241C2F812FDF91CF911F910F9108951F
:102CF0000F931F93CF93DF9300D000D0CDB7DEB7F3
:102D00004130B1F40C831B83890122273327502FD4
:102D10005C71402F437078E0579F400D112448604C
:102D20004A8355E0169507955A95E1F709830DC03A
:102D3000A80123E0569547952A95E1F74983029526
:102D4000000F007E0A831C821B8224E0AE014F5FCD
:102D50005F4F0E940A150F900F900F900F90DF9118
:102D6000CF911F910F910895EF92FF920F931F93B0
:102D7000CF93DF9300D000D0CDB7DEB77A018901C1
:102D8000FA011082F901108211821282138224E06A
:102D9000AE014F5F5F4F0E94A9142A813981822FB3
:102DA00090E045E0959587954A95E1F7F8E03F9FDB
:102DB000800D911D1124AA2797FDA095BA2FF80127
:102DC00080839183A283B38323FF25C062E0880FB1
:102DD000991FAA1FBB1F6A95D1F72370820F911DFF
:102DE000A11DB11DBA2FA92F982F88272B81820FE3
:102DF000911DA11DB11DBA2FA92F982F88272C81B5
:102E0000820F911DA11DB11D80839183A283B38385
:102E100081E0F70180830F900F900F900F90DF916A
:102E2000CF911F910F91FF90EF900895FF920F9314
:102E30001F93CF93DF93EC01F62EAC014A5F5F4FF7
:102E400065E06F0D2D810E940A158E85813019F481
:102E50008D8180648D8364E06F0D4D81CE010E9471
:102E6000E51409811A812B813C8148816F2DCE01A7
:102E70000E947816DF91CF911F910F91FF900895D6
:102E80000F931F93CF93DF93EC01162F9C012F5FBD
:102E90003F4FAC010E94B4166FEF610FCE010E944C
:102EA0008D14082F64E0610FCE010E948D14282F2D
:102EB0008D8303FF03C081E08E8701C01E862F70C3
:102EC0002D83AE014A5F5F4F65E0610FCE01DF9158
:102ED000CF911F910F910C94A914615028E048E004
:102EE0000C9443159F92AF92BF92CF92DF92EF92D4
:102EF000FF920F931F93CF93DF9300D01F92CDB714
:102F0000DEB76C017B0180E3898380E48A8380E5FE
:102F10008B83FB0110828E010F5F1F4F5E01F4E077
:102F2000AF0EB11CF80191908F01692DC6010E946E
:102F30008D14982F987083FD04C09394F7019082AC
:102F400004C00A151B0571F792E0892F0F900F90AE
:102F50000F90DF91CF911F910F91FF90EF90DF9035
:102F6000CF90BF90AF909F900895CF93DF93EC01E7
:102F7000862F688B61E00E94872561E08889DF9158
:102F8000CF910C94C025CF93DF9300D01F92CDB783
:102F9000DEB76B8389839A830E94AB126B81898130
:102FA0009A810E94281691E0811101C090E0892F3A
:102FB0000F900F900F90DF91CF910895CF92DF92F5
:102FC000EF920F931F93CF93DF93FC0120834183F4
:102FD000528363837483093008F008E00583E68632
:102FE000D60180E090E010E0801791073CF42D912D
:102FF000EF01C80FD91F2E830196F6CF80E0DF9135
:10300000CF911F910F91EF90DF90CF900895CF92C5
:10301000DF92EF92FF920F936701E12C0E94DE177F
:103020000F91FF90EF90DF90CF900895EF92FF9275
:103030000F931F93CF93DF931F92CDB7DEB78C0111
:10304000E12CF12CBE016F5F7F4FC8010E94721707
:103050009FEFE91AF90A823029F482E3E816F104B5
:1030600089F724C092E3E916F10401F16981C801EE
:103070000E9416176981C8010E946D17E12CF12C7E
:103080008FEFE81AF80A69816150C8010E948D1417
:1030900083FF06C092E3E916F10491F787E007C0C9
:1030A00082E3E816F104D1F380E001C086E00F90DE
:1030B000DF91CF911F910F91FF90EF900895EF92C4
:1030C000FF920F93CF93DF93EC010E940718CE017C
:1030D000DF91CF910F91FF90EF900C941618CF9342
:1030E000DF93EC010E946E1580FF07C061E6CE0100
:1030F0000E94401720E041E008C081FF0CC061E75A
:10310000CE010E94401720E042E06CE2CE010E9416
:10311000431580E001C084E0DF91CF910895EF92E4
:10312000FF920F931F93CF93DF9300D0CDB7DEB7FD
:103130007C018B0149835A830E946F1849815A810F
:10314000811118C0D70115969C91F8019083FA015E
:1031500020E030E0D70115964C9150E02417350758
:103160005CF4D701A20FB31F16969C9191932F5F29
:103170003F4FF0CFF80110820F900F90DF91CF9169
:103180001F910F91FF90EF9008950E946E1583702C
:1031900011F083E0089584E00895FC01618172815B
:1031A000838194810895EF92FF920F931F93CF93A1
:1031B000DF9300D0CDB7DEB7062F142F682F87E638
:1031C00092E029833A830E94FD0F602F87E692E008
:1031D0000E94B00F2981022FE22E3A81F32E8E2D0C
:1031E000801B811740F4F70161917F0187E692E02F
:1031F0000E94B00FF4CF87E692E00E947E1091E02B
:10320000811190E0892F0F900F90DF91CF911F9146
:103210000F91FF90EF900895CF93DF931F92CDB75A
:10322000DEB749839E012F5F3F4F41E00E94D318D4
:103230000F90DF91CF910895DF92EF92FF920F935D
:103240001F93CF93DF93C62F042F7901682F87E652
:1032500092E00E94FD0F6C2F87E692E00E94B00F73
:1032600010E0000F111FD12CCD2DD0E0C017D107D9
:103270008CF4CC0FDD1FCE0DDF1D698187E692E057
:103280000E94B00F688187E692E00E94B00FD3944D
:10329000D394EACF87E692E00E947E1091E08111FC
:1032A00090E0892FDF91CF911F910F91FF90EF90C8
:1032B000DF900895CF93DF9300D0CDB7DEB75A8368
:1032C00049839E012F5F3F4F41E00E941C190F90E0
:1032D0000F90DF91CF9108953F924F925F926F923E
:1032E0007F928F929F92AF92BF92CF92DF92EF9296
:1032F000FF920F931F93CF93DF9300D000D000D0A5
:10330000CDB7DEB7682E562E742E3A8329830E94DD
:10331000BA246B017C01312C412C872D90E09C83D9
:103320008B834801A12CB12C3714B0F5662D87E6AC
:1033300092E00E94FD0F652D87E692E00E94B00F9B
:1033400087E692E00E947E10662D87E692E00E945A
:10335000FD0F4B815C81431951094132510514F035
:1033600040E250E0662D87E692E00E947B1087E6FF
:1033700092E00E94580F892B59F10115110579F13E
:103380000E94BA246C197D098E099F096815790578
:103390008A059B0520F11CC00115110589F10E94C9
:1033A000BA246C197D098E099F0920E030E060176E
:1033B00071078207930720F1872D90E0242D332792
:1033C00027FD309528173907DCF444244A9418C0A7
:1033D000872D90E2971508F480E2380EA5CFE98199
:1033E000FA81E40DF11D47FCFA95FE83ED8387E633
:1033F00092E00E94600FED81FE8180834394B7CFFD
:10340000842D26960FB6F894DEBF0FBECDBFDF9198
:10341000CF911F910F91FF90EF90DF90CF90BF90D1
:10342000AF909F908F907F906F905F904F903F9064
:1034300008950F931F9389019A0141E00E946C192E
:103440001F910F910895CF92DF92EF92FF920F9309
:103450001F93CF93DF931F92CDB7DEB7C42ED22E2A
:103460009701AE014F5F5F4F0E94191A8823F1F058
:103470004C2D50E04D1951094F5F5F4F61E070E0F6
:1034800002C0660F771FDA94E2F761507109042ECB
:1034900001C0660F0A94EAF72981262330E002C0B2
:1034A000359527954A95E2F7F80120830F90DF9133
:1034B000CF911F910F91FF90EF90DF90CF900895E3
:1034C000EF92FF920F931F93CF93DF931F92CDB78D
:1034D000DEB7182F062FF42EE22E20910A0130912C
:1034E0000B01AE014F5F5F4F0E94191A898121E0E5
:1034F00030E00F2C01C0220F0A94EAF7EE2019F0F9
:10350000482F422B03C0422F409548234983602F08
:10351000812F0E940C190F90DF91CF911F910F9175
:10352000FF90EF900895DF92EF92FF920F931F9319
:10353000CF93DF931F92CDB7DEB7F82EE62ED42EB1
:10354000122F20910A0130910B01AE014F5F5F4FA6
:103550000E94191A882319F14D2D50E0411B510981
:103560004F5F5F4FE1E0F0E002C0EE0FFF1F1A95E2
:10357000E2F73197042E01C0EE0F0A94EAF701C07A
:10358000000F4A95EAF74E2F409589814823E023A2
:103590004E2B49836E2D8F2D0E940C1901C080E0A7
:1035A0000F90DF91CF911F910F91FF90EF90DF90DF
:1035B0000895CF93DF93DB01FA01309719F4EC0102
:1035C000E881F981808190E0982F88272181822BE2
:1035D00011969C938E93848190E0982F8827258163
:1035E000822B13969C938E931297808590E0982F50
:1035F00088272185822B15969C938E93149784851A
:1036000090E0982F88272585822B17969C938E9380
:10361000169780E0DF91CF910895FF920F931F934B
:10362000CF93DF93CDB7DEB728970FB6F894DEBF00
:103630000FBECDBF8B01BE016F5F7F4F0E94D91AB5
:10364000F82E81114CC069817A81882777FD809599
:10365000982F0E94C92B20E030E040E858E30E94F8
:10366000D52CF80160837183828393836B817C8185
:10367000882777FD8095982F0E94C92B20E030E0A5
:1036800040E858E30E94D52CF80164837583868353
:1036900097836D817E81882777FD8095982F0E9482
:1036A000C92B20E030E040E858E30E94D52CF80117
:1036B00060877187828793876F817885882777FDF8
:1036C0008095982F0E94C92B20E030E040E858E315
:1036D0000E94D52CF80164877587868797878F2D80
:1036E00028960FB6F894DEBF0FBECDBFDF91CF9105
:1036F0001F910F91FF9008952F923F924F925F92EA
:103700006F927F928F929F92AF92BF92CF92DF92F1
:10371000EF92FF920F931F93CF93DF9300D000D0CF
:10372000CDB7DEB78B011A01FA01C080D180E280EB
:10373000F380A7019601C701B6010E944D2A698353
:103740007A838B839C83F10184809580A680B780E7
:10375000A5019401C501B4010E944D2A2B013C0131
:10376000A701960169817A818B819C810E94D52C69
:103770006B017C01A5019401C301B2010E94D52C0B
:103780009B01AC01C701B6010E944D2A20E030E048
:1037900040E85FE30E944C2A6B017C01F101208527
:1037A000318542855385C301B2010E94D52C2B017E
:1037B0003C01F101248535854685578569817A81EB
:1037C0008B819C810E94D52C9B01AC01C301B2016D
:1037D0000E944C2AA70196010E94D72AF801608313
:1037E000718382839383F1016481758186819781DE
:1037F0009B01AC010E944D2AF10124853585468547
:1038000057850E94D52C6B017C01F101608171818B
:10381000828193819B01AC010E944D2AF101208598
:103820003185428553850E94D52C9B01AC01C7018F
:10383000B6010E944D2A0E94B12ADC01CB01B0588A
:10384000F80184839583A683B783F10180809180FA
:10385000A280B380A5019401C501B4010E944D2A44
:103860002B013C01F101C484D584E684F784A501D1
:1038700094010E94D52C4B015C01A7019601C70160
:10388000B6010E944D2AA70196010E94D52C9B01EA
:10389000AC01C501B4010E944D2A20E030E040E8AF
:1038A0005FE30E944C2A4B015C01F1016085718548
:1038B000828593859B01AC010E944D2AA701960148
:1038C0000E94D52C6B017C01F10124813581468158
:1038D0005781C301B2010E94D52C9B01AC01C701E5
:1038E000B6010E944C2AA50194010E94D72AF80132
:1038F000608771878287938780E00F900F900F9089
:103900000F90DF91CF911F910F91FF90EF90DF907B
:10391000CF90BF90AF909F908F907F906F905F906F
:103920004F903F902F900895FC01828193810895DC
:1039300028E6FC0124830895462F69E1FC01848177
:103940000C940C190F93062F23E045E06AE1FC016B
:1039500084810E94931A0F9108950F93062F23E0FC
:1039600042E06AE1FC0184810E94931A0F9108955C
:103970000F93062F22E044E06BE1FC0184810E945A
:10398000931A0F9108950F93062F22E044E06CE103
:10399000FC0184810E94931A0F910895462F6FE1D4
:1039A000FC0184810C940C19462F60E2FC01848197
:1039B0000C940C19462F61E2FC0184810C940C19C3
:1039C000462F62E2FC0184810C940C19462F68E3B7
:1039D000FC0184810C940C19CF93DF93EC012091AE
:1039E0000A0130910B01AC014B5F5F4F6AE38C81A0
:1039F0000E94191A8D81DF91CF910895262F46E0FC
:103A00006AE6FC0184810C94601A262F45E06AE680
:103A1000FC0184810C94601A21E042E06AE6FC011A
:103A200084810C94601A21E041E06AE6FC01848103
:103A30000C94601A21E047E06BE6FC0184810C9451
:103A4000601A262F46E06BE6FC0184810C94601A14
:103A50000F93062F23E042E06BE6FC0184810E9475
:103A6000931A0F910895CF93DF93EC0161E00E94C8
:103A7000281D60E0CE010E94B81C60E0CE010E94CB
:103A8000C31C60E0CE01DF91CF910C94211D0F93F8
:103A90001F93CF93DF93EC0100910A0110910B016A
:103AA0009C012B5F3F4F42E062E78C810E946C19C2
:103AB0008D8190E0982F88272E81822BDF91CF91E6
:103AC0001F910F9108950F931F939B01442351F071
:103AD00000910A0110910B0164E7FC0184810E94AE
:103AE0006C1902C0FB0110821F910F910895EF9293
:103AF000FF920F931F93CF93DF93EC01E0900A01A5
:103B0000F0900B018C010B5F1F4F26E046E065E74C
:103B10008C810E94231A8D81DF91CF911F910F918B
:103B2000FF90EF9008950E94771D91E0843309F093
:103B300090E0892F0895262F40E060E0FC01848109
:103B40000C94601AEF92FF920F931F93CF93DF9321
:103B5000EC01E0900A01F0900B018C010B5F1F4F0C
:103B600026E046E060E08C810E94231A8D81DF917F
:103B7000CF911F910F91FF90EF9008950F93062F13
:103B800026E046E060E0FC0184810E94931A0F91D8
:103B90000895EF92FF920F931F93CF93DF93EC0161
:103BA000E0900A01F0900B018C010B5F1F4F26E0A3
:103BB00046E061E08C810E94231A8D81DF91CF91D4
:103BC0001F910F91FF90EF9008950F93062F26E01D
:103BD00046E061E0FC0184810E94931A0F910895F0
:103BE000EF92FF920F931F93CF93DF93EC01E0903E
:103BF0000A01F0900B018C010B5F1F4F26E046E09D
:103C000062E08C810E94231A8D81DF91CF911F91F8
:103C10000F91FF90EF9008950F93062F26E046E056
:103C200062E0FC0184810E94931A0F910895AB0118
:103C30006AE0FC0184810C945A19AB0163E1FC0138
:103C400084810C945A19AB0165E1FC0184810C94C8
:103C50005A19AB0167E1FC0184810C945A19262F93
:103C600047E06AE6FC0184810C94601A21E043E09D
:103C70006AE6FC0184810C94601A6F712111606204
:103C800041116064462F6DE6FC0184810C940C198F
:103C9000462F6EE6FC0184810C940C195F926F92A2
:103CA0007F928F929F92AF92BF92CF92DF92EF92CC
:103CB000FF920F931F93CF93DF937C015B016A0107
:103CC000622E702E20E040E0662D0E943D1E602F87
:103CD000C7010E94481EC0E0D0E0812C9924939433
:103CE000CC15DD05A8F5CE014096C816D90618F406
:103CF0005C2C5C1A02C010E1512E252D30E0C4016D
:103D0000871991098217930714F4572C5194009145
:103D10000A0110910B0195012C0F3D1F452D6FE6F7
:103D2000F70184810E946C19C50DD11D750CCC154D
:103D3000DD05B0F6711001C0639420E040E0662D0F
:103D4000C7010E943D1E672DC7010E94481EC8CFB3
:103D5000DF91CF911F910F91FF90EF90DF90CF9067
:103D6000BF90AF909F908F907F906F905F900895DD
:103D70002F923F924F925F926F927F928F929F927B
:103D8000AF92BF92CF92DF92EF92FF920F931F9369
:103D9000CF93DF9300D000D01F92CDB7DEB79D83C5
:103DA0008C837B836A834A01322ED02EE98220E005
:103DB00040E0632D0E943D1E602F8C819D810E94FA
:103DC000481EE980EE2029F080E190E00E94E42D79
:103DD0005C01CC2039F080E190E00E94E42D582E67
:103DE000292E02C0512C212CE12CF12CE814F904CD
:103DF00008F07BC0C70140968816990618F4482C35
:103E00004E1802C080E1482E242D30E080E091E081
:103E10008D1991098217930714F44D2C4194EA816E
:103E2000FB81EE0DFF1DCC2059F0852DA52DB22D67
:103E30009A2F981B941530F494919D933196F8CF56
:103E40005E2E2F2E252D322D442D6FE6AC81BD81A7
:103E500014968C910E94D318642C712CB981BB23C9
:103E600069F1A114B10451F120E040E0632D8C818F
:103E70009D810E943D1E6D2D8C819D810E94481E5A
:103E800000910A0110910B019501442D6FE6EC8120
:103E9000FD8184810E946C19A301B501852D922DAD
:103EA0000E94D52F892B51F0C5010E947C2ECC2079
:103EB00049F1852D922D0E947C2E24C0E60CF71C22
:103EC000D40CE814F90408F091CFD11001C0339458
:103ED00020E040E0632D8C819D810E943D1E6D2D70
:103EE0008C819D810E94481E81CFF981FF2319F0AA
:103EF000C5010E947C2ECC2039F0852D922D0E9488
:103F00007C2E02C080E001C081E00F900F900F90E6
:103F10000F900F90DF91CF911F910F91FF90EF9035
:103F2000DF90CF90BF90AF909F908F907F906F90D9
:103F30005F904F903F902F900895CF92EF920F9304
:103F4000CC24C3940E94B81E0F91EF90CF90089597
:103F50002F923F924F925F926F927F928F929F9299
:103F6000AF92BF92CF92DF92EF92FF920F931F9387
:103F7000CF93DF9300D01F92CDB7DEB74C017B8388
:103F80006A833A01D22E222339F088E090E00E9421
:103F9000E42D182FF92E02C010E0F12C212C312C29
:103FA0002614370408F051C0EA81FB81E20DF31DAD
:103FB000C10103965C01DD20C1F04491F10131960D
:103FC0008A819B81E80FF91F0491F1013296E80F75
:103FD000F91F5490511044C0F4E02F0E311CEA81B7
:103FE000FB81EA0DFB1D84910DC04081018152804F
:103FF000EA81FB81E80FF91F51100DC084E0280E03
:10400000311C80818130D1F442E368E3F401848182
:104010000E940C19C5CF1E2FFF2E452C512CC12CF0
:10402000EE24E394242FA201612F7F2DC4010E946E
:10403000B81E12012A0C3B1C8111B2CFDD2061F0A9
:10404000812F9F2D0E947C2E07C0DD2039F0812F0B
:104050009F2D0E947C2E02C080E024C081E022C0FF
:10406000252C312CF2E0F51548F4B101812F9F2D5C
:1040700049830E940B2F182FF92E4981812F9F2DE4
:10408000A0E0B0E02A813B812A0D3B1DA215B305BB
:1040900020F6F901EA0FFB1F5491FC015193CF0167
:1040A0001196F4CF0F900F900F90DF91CF911F9149
:1040B0000F91FF90EF90DF90CF90BF90AF909F90C7
:1040C0008F907F906F905F904F903F902F900895CA
:1040D00021E00C94A81F462F60E7FC0184810C941A
:1040E0000C19462F61E7FC0184810C940C198F9206
:1040F0009F92AF92BF92CF92EF920F931F93CF9365
:10410000DF93CDB7DEB7C059D1090FB6F894DEBF43
:104110000FBECDBF5C010E941A1D6EE170E080E011
:1041200090E00E94E92460E0C5010E94211D40E763
:104130006DE6F50184810E940C1966E0C5010E94BC
:10414000481E40E06DE6F50184810E940C19C5010E
:104150000E94A21D182FC5010E94C91D882EC501ED
:104160000E94F01D982E4FE765E2F50184810E94C0
:104170000C1960E0C5010E94051D48E665E2F501E5
:1041800084810E940C19C5010E94131D64E170E036
:1041900080E090E00E94E924EE24E39400E020E037
:1041A00049E857E06EE972E0C5010E949D1F88232F
:1041B00009F408C240EC50E06EED71E0C5010E94C8
:1041C0006820882309F400C263E0C5010E94281D0D
:1041D00062E1C5010E94E61C64E0C5010E949C1CCE
:1041E00061E0C5010E94A21C63E0C5010E94AD1CF4
:1041F00063E0C5010E94B81C63E0C5010E946B200A
:1042000060E0C5010E94712060E0C5010E949B1D15
:10421000612FC5010E94BE1D682DC5010E94E51DCC
:10422000692DC5010E940C1E812C912CF401E155D1
:10423000FE4FE491A1E8B0E0AC0FBD1FA80DB11D89
:10424000EC9381E0880DFFEF8F1A9F0A93E0981599
:1042500068F7CD57DF4F4881C358D04050E09A01EE
:104260002E5F3F4F90E02817390704F7C12CEE244A
:10427000E394CE57DF4F0881C258D040CF57DF4F6D
:104280002881C158D04061E870E06C0F7D1F6D5FE0
:104290007F4FC5010E94B81E60E0F401E155FE4F5A
:1042A000E491A1E8B0E0AC0FBD1FA60FB11DEC93E7
:1042B0006F5FEFEF8E1A9E0A643078F3CD57DF4FB1
:1042C0004881C358D04050E09A012E5F3F4F862F5F
:1042D00090E0281739070CF7C12CEE24E394CE5751
:1042E000DF4F0881C258D040CF57DF4F2881C158D7
:1042F000D04061E870E06C0F7D1F6D5F7F4FC5019E
:104300000E94B81EC5010E940C1DC5010E94471DD8
:10431000482FBE016F5F7F4FC5010E94631D62E0A1
:10432000C5010E94CE1C6CE9C5010E94DA1C60E543
:10433000C5010E94D41C60E0C5010E94E01CC501BB
:104340000E940C1D61E0C5010E94FE1C61E0C501D8
:104350000E942F1EC5010E94361E60E0F401E15547
:10436000FE4FE491A1E8B0E0AC0FBD1FA60FB11D58
:10437000EC936F5FFFEF8F1A9F0A643078F3CD578D
:10438000DF4F4881C358D04050E09A012E5F3F4F25
:10439000862F90E0281739070CF7C12CEE24E39400
:1043A000CE57DF4F0881C258D040CF57DF4F28810A
:1043B000C158D04061E870E06C0F7D1F6D5F7F4F8A
:1043C000C5010E94B81E60E0F401E155FE4FE49182
:1043D000A1E8B0E0AC0FBD1FA60FB11DEC936F5F5D
:1043E0008FEF881A980A643078F3CD57DF4F4881F1
:1043F000C358D04050E09A012E5F3F4F862F90E087
:10440000281739070CF7C12CEE24E394CE57DF4F61
:104410000881C258D040CF57DF4F2881C158D040C3
:1044200061E870E06C0F7D1F6D5F7F4FC5010E94DA
:10443000B81E60E0F401E155FE4FE491A1E8B0E060
:10444000AC0FBD1FA60FB11DEC936F5F9FEF891AD4
:10445000990A643078F3CD57DF4F4881C358D04074
:1044600050E09A012E5F3F4F862F90E028173907C2
:104470000CF7C12CEE24E394CE57DF4F0881C258CD
:10448000D040CF57DF4F2881C158D04061E870E05D
:104490006C0F7D1F6D5F7F4FC5010E94B81EC50167
:1044A0000E94471D83309105D0F3482FBE016F5FF6
:1044B0007F4FC5010E94631D60E0F401E155FE4F8E
:1044C000E491A1E8B0E0AC0FBD1FA60FB11DEC93C5
:1044D0006F5FEFEF8E1A9E0A643078F3CD57DF4F8F
:1044E0004881C358D04050E09A012E5F3F4F862F3D
:1044F00090E0281739070CF7CE57DF4F0881C258D4
:10450000D040CF57DF4F2881C158D04061E870E0DC
:104510006C0F7D1F6D5F7F4FC5010E944E1EC50150
:104520000E94471D83309105D0F3482FBE016F5F75
:104530007F4FC5010E94631DF401E155FE4F60E00D
:104540008491A1E8B0E0AC0FBD1FA60FB11D8C9304
:104550006F5F643010F43196F3CFCD57DF4F488151
:10456000C358D04050E09A012E5F3F4F862F90E015
:104570002817390784F761E870E06C0F7D1F6D5FC5
:104580007F4FC12CEE24E394CE57DF4F0881C258F1
:10459000D040CF57DF4F2881C158D040C5010E947D
:1045A000B81E60E0C5010E942F1E8AE290E0F5016E
:1045B00093838283C5010E940C1DC5010E94EC1CDF
:1045C00080E003C081E001C082E0C057DF4F0FB63A
:1045D000F894DEBF0FBECDBFDF91CF911F910F9139
:1045E000EF90CF90BF90AF909F908F900895EF92F3
:1045F000FF920F93CF93DF93CDB7DEB761970FB6DE
:10460000F894DEBF0FBECDBF198ACE0101967C01A2
:1046100088E0F70111928A95E9F783E793E00E9419
:10462000C5188330E1F4AE01475F5F4FBE016F5E96
:104630007F4F83E793E00E948F1883E793E00E9407
:10464000CD18898580936D038A8580936E038B8551
:1046500080936F038C85809370036093710308E0EF
:1046600020E040E050E0BA0183E793E00E945F1849
:1046700061960FB6F894DEBF0FBECDBFDF91CF912C
:104680000F91FF90EF900895CF92DF92EF92FF92FB
:10469000C0904E03D0904F03E0905003F090510330
:1046A000C0926903D0926A03E0926B03F0926C03AC
:1046B0008091650390916603A0916703B0916803B0
:1046C000C816D906EA06FB0669F1A7019601281B60
:1046D000390B4A0B5B0BA8ECB0E00E94CA2D0E947C
:1046E000C72B23EC35EF48E450E40E94D52C9B0106
:1046F000AC010E944D2A2DEC3CEC4CE450E40E94AD
:10470000D52C20E030E048E453E40E942E2B0E9498
:104710009B2B609361037093620380936303909378
:10472000640308C010926103109262031092630345
:1047300010926403C0926503D0926603E09267030F
:10474000F0926803FF90EF90DF90CF90089585E09E
:104750000E94F62580935F03811118C090915E033B
:104760009923A1F040914E0350914F036091500363
:10477000709151034F5F5F4F6F4F7F4F40934E03D8
:1047800050934F03609350037093510380935E03E3
:1047900008958091720385FD2CC08062809372031E
:1047A0008091720380FF06C00E94A723809172034C
:1047B0008E7F19C081FF06C00E94F722809172038C
:1047C0008D7F11C082FF02C08B7F0DC083FF06C0AA
:1047D0000E94442380917203877F05C084FF02C03A
:1047E0008F7E01C08F7D809372038091720385FD5F
:1047F000D7CF08956AE083E793E00C94B517309122
:1048000087033F5F30938703209186032F5F2093B8
:104810008603909185039F5F909385038091840325
:104820008F5F80938403313039F4309172033160AB
:1048300030937203109287032A3051F4209172034F
:104840002260209372031092860321E0209360037C
:10485000943639F49091720394609093720310929D
:104860008503883C39F480917203886080937203D9
:10487000109284030C94C923089561E087E00E949C
:10488000872561E088E00E94872561E089E00E9439
:10489000872561E08EE00E94872560E085E00E9428
:1048A000872561E087E00C948725A0EBB0E01C929F
:1048B000E1EBF0E010821092B2008FEF8093B30032
:1048C0008C9182608C93808184608083E0E7F0E04B
:1048D00080818260808308950E943D240C94552439
:1048E0001F920F920FB60F9211242F933F938F9325
:1048F0009F93AF93BF938091890390918A03A09176
:104900008B03B0918C033091880323E0230F2D3764
:1049100020F40196A11DB11D05C026E8230F0296C3
:10492000A11DB11D209388038093890390938A036E
:10493000A0938B03B0938C0380918D0390918E0391
:10494000A0918F03B09190030196A11DB11D80939A
:104950008D0390938E03A0938F03B0939003BF9128
:10496000AF919F918F913F912F910F900FBE0F901C
:104970001F9018952FB7F8946091890370918A035E
:1049800080918B0390918C032FBF08953FB7F894CB
:1049900080918D0390918E03A0918F03B09190032D
:1049A00026B5A89B05C02F3F19F00196A11DB11D8A
:1049B0003FBF6627782F892F9A2F620F711D811DA7
:1049C000911D42E0660F771F881F991F4A95D1F706
:1049D00008958F929F92AF92BF92CF92DF92EF9203
:1049E000FF926B017C010E94C6244B015C01C11443
:1049F000D104E104F104F1F00E944B2A0E94C62484
:104A0000681979098A099B09683E734081059105F7
:104A100070F321E0C21AD108E108F10888EE880E8F
:104A200083E0981EA11CB11CC114D104E104F1045F
:104A300029F7DDCFFF90EF90DF90CF90BF90AF9040
:104A40009F908F900895789484B5826084BD84B5DA
:104A5000816084BD85B5826085BD85B5816085BD79
:104A6000EEE6F0E0808181608083E1E8F0E0108292
:104A7000808182608083808181608083E0E8F0E0D3
:104A8000808181608083E1EBF0E0808184608083BD
:104A9000E0EBF0E0808181608083EAE7F0E08081F4
:104AA0008460808380818260808380818160808354
:104AB0008081806880831092C1000895833081F0E6
:104AC00028F4813099F08230A1F008958730A9F060
:104AD0008830B9F08430D1F4809180008F7D03C09C
:104AE000809180008F7780938000089584B58F77C0
:104AF00002C084B58F7D84BD08958091B0008F770A
:104B000003C08091B0008F7D8093B0000895CF9353
:104B1000DF9390E0FC01E55CF54F2491FC01E15B43
:104B2000F54F8491882349F190E0880F991FFC018B
:104B3000E958F54FA591B4918359954FFC01C59162
:104B4000D4919FB7611108C0F8948C91209582236D
:104B50008C93888182230AC0623051F4F8948C913E
:104B6000322F309583238C938881822B888304C0D5
:104B7000F8948C91822B8C939FBFDF91CF910895F5
:104B80000F931F93CF93DF931F92CDB7DEB7282FDC
:104B900030E0F901E95DF54F8491F901E55CF54FED
:104BA0001491F901E15BF54F04910023C9F08823CA
:104BB00021F069830E945E256981E02FF0E0EE0F0D
:104BC000FF1FE359F54FA591B4919FB7F8948C91CD
:104BD000611103C01095812301C0812B8C939FBF6D
:104BE0000F90DF91CF911F910F910895CF93DF9395
:104BF000282F30E0F901E95DF54F8491F901E55C7A
:104C0000F54FD491F901E15BF54FC491CC2391F0BC
:104C100081110E945E25EC2FF0E0EE0FFF1FED5991
:104C2000F54FA591B4912C912D2381E090E021F4D2
:104C300080E002C080E090E0DF91CF910895FC0118
:104C4000818D228D90E0805C9F4F821B91098F7334
:104C500099270895FC01918D828D981731F0828DEE
:104C6000E80FF11D858D90E008958FEF9FEF089577
:104C7000FC01918D828D981761F0828DDF01A80F64
:104C8000B11D5D968C91928D9F5F9F73928F90E086
:104C900008958FEF9FEF08958CEB97E2892B49F0F1
:104CA00080E090E0892B29F00E94BC2781110C94B0
:104CB00000000895FC01848DDF01A80FB11DA35AE7
:104CC000BF4F2C91848D90E001968F739927848F2C
:104CD000A689B7892C93A089B1898C9180648C9323
:104CE000938D848D981306C00288F389E02D80810E
:104CF0008F7D80830895CF93DF93EC01888D882387
:104D0000C9F0EA89FB89808185FD05C0A889B98938
:104D10008C9186FD0FC00FB607FCF5CF808185FF13
:104D2000F2CFA889B9898C9185FFEDCFCE010E9481
:104D30005A26E7CFDF91CF910895CF92DF92FF926D
:104D40000F931F93CF93DF931F92CDB7DEB76C0104
:104D500081E0D60158968C9358975B969C915B970F
:104D60005C968C915C97981307C05096ED91FC91DE
:104D70005197808185FD2EC0F601038D10E00F5FF5
:104D80001F4F0F731127F02EF601848DF81211C0FA
:104D90000FB607FCF9CFD6015096ED91FC915197D3
:104DA000808185FFF1CFC60169830E945A266981FF
:104DB000EBCF838DE80FF11DE35AFF4F6083D601DF
:104DC0005B960C935B975296ED91FC915397808183
:104DD00080620CC0D6015696ED91FC915797608386
:104DE0005096ED91FC91519780818064808381E0A1
:104DF00090E00F90DF91CF911F910F91FF90DF9086
:104E0000CF900895BF92CF92DF92EF92FF92CF930F
:104E1000DF93EC016A017B01B22EE889F98982E017
:104E20008083411581EE580761057105A1F060E0AE
:104E300079E08DE390E0A70196010E94A22D215018
:104E400031094109510956954795379527952115FF
:104E500080E1380798F0E889F989108260E874E801
:104E60008EE190E0A70196010E94A22D2150310908
:104E7000410951095695479537952795EC85FD854C
:104E80003083EE85FF852083188EEC89FD89B08202
:104E9000EA89FB89808180618083EA89FB8980813E
:104EA00088608083EA89FB89808180688083EA89C1
:104EB000FB8980818F7D8083DF91CF91FF90EF9080
:104EC000DF90CF90BF9008951F920F920FB60F9270
:104ED00011242F938F939F93EF93FF93E091A1035E
:104EE000F091A2038081E091A703F091A80382FDD5
:104EF00012C090818091AA038F5F8F732091AB03C2
:104F0000821751F0E091AA03F0E0EF56FC4F958F25
:104F10008093AA0301C08081FF91EF919F918F91AF
:104F20002F910F900FBE0F901F9018951F920F9208
:104F30000FB60F9211242F933F934F935F936F936C
:104F40007F938F939F93AF93BF93EF93FF9381E9E9
:104F500093E00E945A26FF91EF91BF91AF919F91EC
:104F60008F917F916F915F914F913F912F910F9012
:104F70000FBE0F901F90189581E993E00E941F26A5
:104F800021E0892B09F420E0822F089510929403E8
:104F90001092930388EE93E0A0E0B0E08093950335
:104FA00090939603A0939703B093980381E791E0C1
:104FB000909392038093910385EC90E090939E03ED
:104FC00080939D0384EC90E09093A00380939F03D3
:104FD00080EC90E09093A2038093A10381EC90E099
:104FE0009093A4038093A30382EC90E09093A60394
:104FF0008093A50386EC90E09093A8038093A70389
:105000001092AA031092AB031092AC031092AD035E
:10501000089508950E9423250E9409280E940B08E4
:10502000CCE4D6E20E9473082097E1F30E944C265C
:10503000F9CFCF92DF92EF92FF920F931F93CF930E
:10504000DF937C016A01EB0100E010E00C151D0507
:1050500071F06991D701ED91FC910190F081E02D03
:10506000C7010995892B19F00F5F1F4FEFCFC801BA
:10507000DF91CF911F910F91FF90EF90DF90CF9034
:1050800008956115710581F0DB010D900020E9F7AD
:10509000AD0141505109461B570BDC01ED91FC91CC
:1050A0000280F381E02D099480E090E00895EF9272
:1050B000FF920F931F93CF93DF938C017B01C0E08E
:1050C000D0E0F701EC0FFD1F6491662359F0F80161
:1050D000A081B181ED91FC91C8010995892B11F056
:1050E0002196EFCFCE01DF91CF911F910F91FF90CD
:1050F000EF9008950C944128DC01ED91FC91019012
:10510000F081E02D09946DE771E00C9441280F9334
:105110001F93CF93DF93EC010E9457288C01CE019F
:105120000E948328800F911FDF91CF911F910F91D3
:1051300008950F931F93CF93DF93EC010E944128B2
:105140008C01CE010E948328800F911FDF91CF91A7
:105150001F910F9108958F929F92AF92BF92DF920D
:10516000EF92FF920F931F93CF93DF93CDB7DEB7EC
:10517000A1970FB6F894DEBF0FBECDBF7C01F42F10
:10518000D52ECB0119A2223008F42AE08E010F5D42
:105190001F4F822E912CA12CB12C6F2F7D2DA5019C
:1051A00094010E94A22DF22FD32ECA0101501109A1
:1051B0006A3014F4E0E301C0E7E3E60FD801EC93B2
:1051C000232B242B252B49F7B801C7010E94412826
:1051D000A1960FB6F894DEBF0FBECDBFDF91CF9181
:1051E0001F910F91FF90EF90DF90BF90AF909F9035
:1051F0008F900895CF92DF92EF92FF920F931F93BB
:10520000CF93DF93EC016A017B012115310579F41D
:10521000E881F9810190F081E02D642FDF91CF9139
:105220001F910F91FF90EF90DF90CF9009942A305B
:105230003105E9F477FF1AC06DE20E947C288C01E9
:1052400044275527BA014C195D096E097F092AE0E8
:10525000CE010E94AB28800F911FDF91CF911F914B
:105260000F91FF90EF90DF90CF9008952AE0B70163
:10527000A601CE01DF91CF911F910F91FF90EF908A
:10528000DF90CF900C94AB282115310541F4DC015F
:10529000ED91FC910190F081E02D642F09940C9424
:1052A000AB289A01462F50E060E070E00C9444294E
:1052B0009A01AB0160E070E00C9444294F925F9238
:1052C0006F927F928F929F92AF92BF92CF92DF9216
:1052D000EF92FF920F931F93CF93DF93EC016A013C
:1052E0007B01B22E9A01AB01C701B6010E947D2D50
:1052F000882319F060E871E027C026013701E8949F
:1053000077F82FEF3FEF4FE75FE7C301B2010E944D
:105310007D2D81110DC02FEF3FEF4FE75FE7C301F8
:10532000B2010E942A2B18161CF464E871E00CC02C
:105330002FEF3FEF4FE75FE4C701B6010E94CA2C91
:105340001816ACF468E871E0CE01DF91CF911F919F
:105350000F91FF90EF90DF90CF90BF90AF909F9014
:105360008F907F906F905F904F900C9441282FEF1B
:105370003FEF4FE75FECC701B6010E942A2B87FD84
:10538000E1CF20E030E0A901C701B6010E942A2B3D
:1053900087FF0AC06DE2CE010E947C288C01F7FADB
:1053A000F094F7F8F09402C000E010E0A12C60E067
:1053B00070E080E09FE3AB1441F020E030E040E299
:1053C00051E40E942E2BA394F6CF9B01AC01C701A0
:1053D000B6010E944D2A6B017C010E949B2B2B0180
:1053E0003C010E94C72B9B01AC01C701B6010E9482
:1053F0004C2A6B017C012AE0B301A201CE010E947C
:10540000AB28080F191FBB2039F06CE871E0CE0102
:105410000E944128080F191F7B2C772041F120E0C2
:1054200030E040E251E4C701B6010E94D52C6B0187
:105430007C010E94962B4B01AA2497FCA094BA2CC5
:105440002AE030E0B501A401CE010E94FA28080F3D
:10545000191FC501B4010E94C92B9B01AC01C701F2
:10546000B6010E944C2A6B017C017A94D6CFC80108
:10547000DF91CF911F910F91FF90EF90DF90CF9030
:10548000BF90AF909F908F907F906F905F904F9064
:1054900008950C945E2908955058BB27AA270ED072
:1054A0003FC230D230F035D220F031F49F3F11F4BA
:1054B0001EF4EFC10EF4E095E7FBE5C1E92F41D200
:1054C00080F3BA17620773078407950718F071F421
:1054D0009EF559C20EF4E0950B2EBA2FA02D0B01AC
:1054E000B90190010C01CA01A0011124FF27591B29
:1054F00099F0593F50F4503E68F11A16F040A22F2F
:10550000232F342F4427585FF3CF4695379527959F
:10551000A795F0405395C9F77EF41F16BA0B620B9E
:10552000730B840BBAF09150A1F0FF0FBB1F661FE5
:10553000771F881FC2F70EC0BA0F621F731F841F28
:1055400048F4879577956795B795F7959E3F08F04E
:10555000B3CF9395880F08F09927EE0F979587950D
:1055600008959F939F77EEE389379E0720F4ECE838
:10557000F0E0B7D109C048D19058A2EA2AED3FE047
:1055800049EC5FE39BDFCCD10F9007FC9058089566
:10559000B9D158F080E891E009F49EEFBAD128F033
:1055A00040E851E059F45EEF09C073C1ECC1E92F46
:1055B000E078C7D168F3092E052AC1F3261737070B
:1055C0004807590738F00E2E07F8E02569F0E02566
:1055D000E0640AC0EF6307F8009407FADB01B90141
:1055E0009D01DC01CA01AD01EF9347D099D10AD0EA
:1055F0005F91552331F02BED3FE049E450FD49EC3C
:105600004CCF0895DF93DD27B92FBF7740E85FE3E4
:105610001616170648075B0710F4D92FBFD19F93C2
:105620008F937F936F9366D2E0EAF0E035D178D123
:105630002F913F914F915F91C4D1DD2349F0905854
:10564000A2EA2AED3FE049EC5FE3D0785D2736DF40
:10565000DF9166C1F4D008F481E008950CD060C1F8
:1056600058D140F04FD130F021F45F3F19F00BC119
:1056700051118AC10EC165D198F39923C9F35523FD
:10568000B1F3951B550BBB27AA2762177307840735
:1056900038F09F5F5F4F220F331F441FAA1FA9F3EB
:1056A00033D00E2E3AF0E0E830D091505040E695DD
:1056B000001CCAF729D0FE2F27D0660F771F881F3E
:1056C000BB1F261737074807AB07B0E809F0BB0B2D
:1056D000802DBF01FF2793585F4F2AF09E3F510551
:1056E00068F0D1C051C15F3FECF3983EDCF3869582
:1056F00077956795B795F7959F5FC9F7880F911DC7
:105700009695879597F90895E1E0660F771F881FB2
:10571000BB1F621773078407BA0720F0621B730B65
:10572000840BBA0BEE1F88F7E095089504D06894B7
:10573000B1112AC108950DD188F09F5790F0B92F6B
:105740009927B751A0F0D1F0660F771F881F991FD6
:105750001AF0BA95C9F712C0B13081F014D1B1E096
:10576000089511C1672F782F8827B85F39F0B93FA6
:10577000CCF3869577956795B395D9F73EF49095D8
:105780008095709561957F4F8F4F9F4F0895E89456
:1057900009C097FB3EF490958095709561957F4F79
:1057A0008F4F9F4F9923A9F0F92F96E9BB27939527
:1057B000F695879577956795B795F111F8CFFAF437
:1057C000BB0F11F460FF1BC06F5F7F4F8F4F9F4F68
:1057D00016C0882311F096E911C0772321F09EE8C6
:1057E000872F762F05C0662371F096E8862F70E02C
:1057F00060E02AF09A95660F771F881FDAF7880F06
:105800009695879597F90895DF93CF931F930F93FC
:105810008B01EC01EDECF0E03FD082D09801AE01BD
:105820008B01EC0160E070E080E89FE335DE24D17D
:105830009801AE010F911F91CF91DF91C2C0990FD6
:105840000008550FAA0BE0E8FEEF16161706E8074A
:10585000F907C0F012161306E407F50798F0621B6B
:10586000730B840B950B39F40A2661F0232B242B40
:10587000252B21F408950A2609F4A140A6958FEF5F
:10588000811D811D089597F99F6780E870E060E0B1
:1058900008959FEF80EC0895DF93CF931F930F93AC
:1058A000FF92EF92DF927B018C01689405C0DA2EA3
:1058B000EF0187D0FE01E894A5912591359145919E
:1058C0005591AEF3EF01FADDFE019701A801DA94DC
:1058D00079F7DF90EF90FF900F911F91CF91DF91BB
:1058E00008959F938F937F936F93FF93EF939B0103
:1058F000AC015BD0EF91FF91CFDF2F913F914F91A2
:105900005F9153C000240A9416161706180609065C
:10591000089500240A941216130614060506089525
:10592000092E0394000C11F4882352F0BB0F40F4AD
:10593000BF2B11F460FF04C06F5F7F4F8F4F9F4FED
:10594000089557FD9058440F551F59F05F3F71F06F
:105950004795880F97FB991F61F09F3F79F08795D6
:105960000895121613061406551FF2CF4695F1DF5F
:1059700008C0161617061806991FF1CF86957105EF
:10598000610508940895E894BB2766277727CB0123
:1059900097F9089554DF08F48FEF08959B01AC0147
:1059A00060E070E080E89FE359CE0BD0B9CFAADF6A
:1059B00028F0AFDF18F0952309F065CF6ACF1124E6
:1059C000E3CFBFDFA0F3959FD1F3950F50E0551FB4
:1059D000629FF001729FBB27F00DB11D639FAA2744
:1059E000F00DB11DAA1F649F6627B00DA11D661F93
:1059F000829F2227B00DA11D621F739FB00DA11DB4
:105A0000621F839FA00D611D221F749F3327A00D6D
:105A1000611D231F849F600D211D822F762F6A2F09
:105A200011249F5750408AF0E1F088234AF0EE0F8E
:105A3000FF1FBB1F661F771F881F91505040A9F79B
:105A40009E3F510570F01FCF9FCF5F3FECF3983E14
:105A5000DCF3869577956795B795F795E7959F5F02
:105A6000C1F7FE2B880F911D9695879597F908959C
:105A700011F40EF40ECF45C06CDFD0F39923D9F3A7
:105A8000CEF39F57550B87FF4AD00024A0E640EA8B
:105A9000900180585695979528F4805C660F771F83
:105AA000881F20F026173707480730F4621B730B56
:105AB000840B202931294A2BA69517940794202579
:105AC00031254A2758F7660F771F881F20F02617C1
:105AD0003707480730F4620B730B840B200D311D20
