:100000000C9475000C949D000C949D000C949D0024
:100010000C949D000C949D000C949D000C94E400A5
:100020000C949D000C949D000C949D000C949D00DC
:100030000C949D000C949D000C949D000C949D00CC
:100040000C941E070C949D000C94200A0C94520AE8
:100050000C949D000C949D000C949D000C949D00AC
:100060000C949D000C949D006104650428042B04ED
:100070002E043204360439043D044004430446048B
:1000800049044D045104550458045B040000000861
:10009000000201000003040700000000000000004F
:1000A000010204081020408001020408102001020F
:1000B00004081020040404040404040402020202DC
:1000C00002020303030303030000000023002600D1
:1000D000290000000000250028002B00000000007F
:1000E000240027002A000303820A11241FBECFEF39
:1000F000D8E0DEBFCDBF11E0A0E0B1E0ECE3F8E175
:1001000002C005900D92AE38B107D9F722E0AEE8F3
:10011000B1E001C01D92AC36B207E1F710E0CAEEC3
:10012000D0E004C02297FE010E94180CC63ED10701
:10013000C9F70E94C60A0C941C0C0C940000CF92C4
:10014000DF92EF92FF920F931F93E82FF92F05C0D4
:10015000015011092109310961F190819623941709
:10016000B9F305C0015011092109310911F190813C
:1001700096239413F7CFC12CD12CE12CF12C0AC07B
:100180008FEFC81AD80AE80AF80A0C151D052E05C3
:100190003F0579F080818623841791F36C2D7D2DA6
:1001A0008E2D9F2D1F910F91FF90EF90DF90CF909C
:1001B000089560E070E080E090E01F910F91FF9063
:1001C000EF90DF90CF9008951F920F920FB60F928D
:1001D00011242F933F934F935F936F937F938F934C
:1001E0009F93AF93BF93EF93FF930E94B006FF914D
:1001F000EF91BF91AF919F918F917F916F915F919F
:100200004F913F912F910F900FBE0F901F90189517
:1002100061E0809108010E94400861E08091060140
:100220000E94400861E080910C010E94400861E05A
:1002300080910A010E94400860E0809104010E94C0
:10024000400860E0809102010E94400860E08091D7
:1002500000010C9440088130910511F461E00DC05B
:100260008230910539F461E080910C010E94790897
:1002700060E008C0039751F460E080910C010E9497
:10028000790861E080910A010C94790808951F9320
:10029000CF93DF93182FEB0181E090E00E942B01B8
:1002A000209711F460E012C0C130D10511F460E074
:1002B00004C0C230D10539F461E0809106010E948A
:1002C000790860E008C0239751F461E0809106014D
:1002D0000E94790861E0809108010E94790865E038
:1002E00070E080E090E00E94970720E23EE440E06A
:1002F00050E060E0812F0E94AF08EB0180E090E0C9
:100300000E94930B2DEC3CEC4CEC5DE30E948F0BB8
:1003100087FF02C0C0E8D8E3CE01DF91CF911F91E3
:1003200008958F929F92AF92BF92CF92DF92EF92F9
:10033000FF920F931F93CF93DF93CDB7DEB728972C
:100340000FB6F894DEBF0FBECDBF8C014B0141E06C
:1003500060E070E00E9447015C0141E061E070E014
:10036000C8010E9447016C0141E062E070E0C801F1
:100370000E9447017C0141E063E070E0C8010E94F7
:100380004701BA82A982DC82CB82FE82ED82988705
:100390008F83DE011196F401CE01079620E030E054
:1003A0006D917D91419151916417750710F42F5F04
:1003B0003F4FA817B907A1F781E090E0233031053E
:1003C00011F080E090E028960FB6F894DEBF0FBEE3
:1003D000CDBFDF91CF911F910F91FF90EF90DF90F4
:1003E000CF90BF90AF909F908F900895EF92FF9223
:1003F0000F931F938091BD018093AA016EE871E075
:1004000080910401909105010E949101082F6EE9ED
:1004100071E080910201909103010E949101182FD7
:1004200066E971E080910001909101010E949101C3
:100430009091AA01973418F010920E0103C0911107
:1004400090930E0100930F011093100180931101FE
:100450000E9468070091A6011091A7012091A801B0
:100460003091A901601B710B820B930B6A307105EF
:1004700081059105C0F00E9468076093A601709302
:10048000A7018093A8019093A9018EE0E82E81E056
:10049000F82E08E020E040E750E060E070E08BEAF2
:1004A00091E00E944A064AE050E060910E018EEC15
:1004B00091E00E94870B66E171E08EEC91E00E9472
:1004C000130B4AE050E060910F018EEC91E00E9426
:1004D000870B66E171E08EEC91E00E94130B4AE01D
:1004E00050E0609110018EEC91E00E94870B66E174
:1004F00071E08EEC91E00E94130B4AE050E06091B5
:1005000011018EEC91E00E94870B66E171E08EECA8
:1005100091E00E94130B8EEC91E01F910F91FF90E0
:10052000EF900C94150B4AE050E050939F014093DC
:100530009E018EE190E09093A1018093A00124E1BF
:1005400030E03093A3012093A2019093A501809302
:10055000A401509397014093960190939901809341
:10056000980130939B0120939A0190939D01809371
:100570009C0150938F0140938E0190939101809341
:100580009001309393012093920190939501809371
:100590009401089526E040E855E260E070E08EECBA
:1005A00091E00E94BE0968EE73E080E090E00E9456
:1005B0009707F89460E18BEA91E00E94AE058823EA
:1005C00069F068E171E08EEC91E00E94190B61E343
:1005D00071E08EEC91E00E94190BECCF6CE471E0BD
:1005E0008EEC91E00E94190B0E941A070E94EA0605
:1005F0000E9408010E949302789464E671E08EECF8
:1006000091E00C94190B6AE08BEA91E00C94A00540
:10061000CF93CFB7F8948091BC01811127C0EEEB46
:10062000F0E08491EAEAF0E09491E82FF0E0EE0F38
:10063000FF1FE452FF4FA591B4918C91892321F4BF
:1006400061E08AE00E94790861E08AE00E94400847
:100650008CB580618CBD8CB580648CBD61E08DE013
:100660000E94400861E08BE00E9440088091BC013C
:100670008F5F8093BC01CFBFCF9108958EBD0000E6
:100680000DB407FEFDCF8EB50895CF93DF93EC0137
:1006900060E088890E94790880EC0E943E0361E056
:1006A00088890E9479086AE070E080E090E0DF913C
:1006B000CF910C9497071F93CF93DF93EC01162FE4
:1006C00060E088890E94790883E00E943E03812FC0
:1006D0000E943E0380E00E943E03182F61E088895B
:1006E0000E947908812FDF91CF911F910895EF9299
:1006F000FF921F93CF93DF931F92CDB7DEB77C019C
:10070000162F60E0FC01808949830E94790882E00D
:100710000E943E03812F0E943E034981842F0E9444
:100720003E0361E0F70180890F90DF91CF911F9127
:10073000FF90EF900C947908CF92DF92EF92FF92A6
:100740000F931F93CF93DF9300D0CDB7DEB78C010B
:10075000E62EF22E60E0FC01808949835A830E94D4
:10076000790882E00E943E038E2D0E943E0349815B
:10077000E42EC42E5A81D52E8C2D8E198F1530F46F
:10078000F60181916F010E943E03F6CF61E0F8010E
:1007900080890F900F90DF91CF911F910F91FF9063
:1007A000EF90DF90CF900C947908EF92FF921F9317
:1007B000CF93DF9300D0CDB7DEB77C01162F60E07A
:1007C000FC0180892A8349830E94790885E00E9480
:1007D0003E03812F0E943E034981842F0E943E03E5
:1007E0002A81822F0E943E0361E0F70180890F90E9
:1007F0000F90DF91CF911F91FF90EF900C947908AB
:100800001F93CF93DF93EC01162F262F40EE6FE05E
:100810000E94D5036FE0CE010E945B03982F907E6B
:1008200081E0911301C080E0DF91CF911F91089585
:100830000F931F93CF93DF93EC01462F50E0FA0103
:100840003197E231F105D8F5EC5CFF4F0C94160CB2
:1008500017E80FEF05C017E00AEB02C015E801EF3B
:100860004FE036C017E00EEB49E032C017E80FEF5B
:1008700002C017E80AEF47E02BC017E80FEF0BC0E4
:1008800017E00EEB08C017E00DEA05C017E80AEF05
:1008900002C016E800EF43E01BC017E80AEF41E092
:1008A00017C015E801EF41E413C016E800EF05C0DA
:1008B00014E000EA02C012E800ED40E009C081E067
:1008C00016C017E80FEF4FE303C017E80FEF4FE133
:1008D0006AE2CE010E947703402F69E2CE010E94B6
:1008E0007703412F68E2CE010E94770380E0DF9119
:1008F000CF911F910F9108951F93CF93DF93EC0138
:1009000010E340E0612FCE010E94770360E1610FA8
:1009100040E0CE010E94770360E2610F40E0CE012B
:100920000E9477031F5F1E3361F740E060E6CE014F
:100930000E94770340E060E7CE01DF91CF911F91E5
:100940000C9477030F931F93CF93DF93EC01062F43
:100950000E94450360E8CE010E940004182F6AE05F
:1009600070E080E090E011110CC00E949707602FAA
:10097000CE010E941804882339F06AE070E080E01C
:1009800090E00E94970728C06AE070E080E090E065
:100990000E949707CE010E947C0443E06BE2CE01E7
:1009A0000E94770324E044E660E6CE010E94D5036E
:1009B00020E040E660E7CE010E94D50360E0CE0172
:1009C0000E940004C82F8823C1F26AE070E080E032
:1009D00090E00E9497071C2F812FDF91CF911F91EC
:1009E0000F9108950F931F93CF93DF9300D000D002
:1009F000CDB7DEB74130B1F40C831B8389012227C8
:100A00003327502F5C71402F437078E0579F400D83
:100A1000112448604A8355E0169507955A95E1F7E9
:100A200009830DC0A80123E0569547952A95E1F763
:100A300049830295000F007E0A831C821B8224E0FA
:100A4000AE014F5F5F4F0E949C030F900F900F907D
:100A50000F90DF91CF911F910F910895FF920F9307
:100A60001F93CF93DF93EC01F62EAC014A5F5F4FEB
:100A700065E06F0D2D810E949C038E85813019F4F5
:100A80008D8180648D8364E06F0D4D81CE010E9465
:100A9000770309811A812B813C8148816F2DCE011A
:100AA0000E94F204DF91CF911F910F91FF90089562
:100AB000615028E048E00C94D5039F92AF92BF921A
:100AC000CF92DF92EF92FF920F931F93CF93DF931A
:100AD00000D01F92CDB7DEB76C017B0180E3898324
:100AE00080E48A8380E58B83FB0110828E010F5F97
:100AF0001F4F5E01F4E0AF0EB11CF80191908F0121
:100B0000692DC6010E945B03982F987083FD04C075
:100B10009394F701908204C00A151B0571F792E0C7
:100B2000892F0F900F900F90DF91CF911F910F9110
:100B3000FF90EF90DF90CF90BF90AF909F9008957F
:100B4000CF93DF93EC01862F688B61E00E94400811
:100B500061E08889DF91CF910C947908CF93DF937E
:100B600000D01F92CDB7DEB76B8389839A830E9432
:100B700008036B8189819A810E94A20491E081110E
:100B800001C090E0892F0F900F900F90DF91CF91CF
:100B90000895CF92DF92EF920F931F93CF93DF933D
:100BA000FC0120834183528363837483093008F0FE
:100BB00008E00583E686D60180E090E010E080172B
:100BC00091073CF42D91EF01C80FD91F2E83019698
:100BD000F6CF80E0DF91CF911F910F91EF90DF90E2
:100BE000CF900895CF92DF92EF92FF920F9367011B
:100BF000E12C0E94C9050F91FF90EF90DF90CF90FC
:100C00000895EF92FF920F931F93CF93DF931F925C
:100C1000CDB7DEB78C01E12CF12CBE016F5F7F4FA9
:100C2000C8010E945D059FEFE91AF90A823029F494
:100C300082E3E816F10489F724C092E3E916F1048F
:100C400001F16981C8010E942E056981C8010E94D5
:100C50005805E12CF12C8FEFE81AF80A69816150F0
:100C6000C8010E945B0383FF06C092E3E916F1040A
:100C700091F787E007C082E3E816F104D1F380E042
:100C800001C086E00F90DF91CF911F910F91FF90EF
:100C9000EF900895EF92FF920F93CF93DF93EC01C3
:100CA0000E94F205CE01DF91CF910F91FF90EF905E
:100CB0000C94010660E08EE00E94790882E090E0EA
:100CC0000E94D10761E08EE00E94790885E090E003
:100CD0000E94D10760E08EE00C94790828ED39E598
:100CE00040E050E061E08FE00E94AF082AE330E08E
:100CF00040E050E00E94F40B2093BD013093BE0110
:100D00004093BF015093C001089580916B0285FD0F
:100D100026C0806280936B0280916B0280FF02C0CC
:100D20008E7F17C081FF02C08D7F13C082FF08C075
:100D30000E945A060E946E0680916B028B7F09C04A
:100D400083FF02C0877F05C084FF02C08F7E01C081
:100D50008F7D80936B0280916B0285FDDDCF0895BE
:100D60003091C4013F5F3093C4012091C3012F5FD4
:100D70002093C3019091C2019F5F9093C201809123
:100D8000C1018F5F8093C1013A3039F430916B0219
:100D9000316030936B021092C401243139F42091F8
:100DA0006B02226020936B021092C301923339F4DC
:100DB00090916B02946090936B021092C201843602
:100DC00039F480916B02886080936B021092C101AC
:100DD0000C948506089561E08EE00E94400861E071
:100DE00080E10E94400861E082E10E94400860E0EA
:100DF0008FE00E94400860E081E10E94400860E0CE
:100E000083E10C944008A0EBB0E01C92E1EBF0E031
:100E100010821092B20089EF8093B3008C918260AF
:100E20008C93808184608083E0E7F0E08081826041
:100E3000808308950E94EB060C9403071F920F9283
:100E40000FB60F9211242F933F938F939F93AF93DD
:100E5000BF938091C6019091C701A091C801B09144
:100E6000C9013091C50123E0230F2D3720F40196ED
:100E7000A11DB11D05C026E8230F0296A11DB11DBD
:100E80002093C5018093C6019093C701A093C80128
:100E9000B093C9018091CA019091CB01A091CC017E
:100EA000B091CD010196A11DB11D8093CA0190930F
:100EB000CB01A093CC01B093CD01BF91AF919F9195
:100EC0008F913F912F910F900FBE0F901F9018950B
:100ED0002FB7F8946091C6017091C7018091C80145
:100EE0009091C9012FBF08953FB7F8948091CA012E
:100EF0009091CB01A091CC01B091CD0126B5A89BDA
:100F000005C02F3F19F00196A11DB11D3FBF6627F7
:100F1000782F892F9A2F620F711D811D911D42E03C
:100F2000660F771F881F991F4A95D1F708958F92F2
:100F30009F92AF92BF92CF92DF92EF92FF926B019E
:100F40007C010E9474074B015C01C114D104E104CF
:100F5000F104F1F00E948E0B0E9474076819790960
:100F60008A099B09683E73408105910570F321E071
:100F7000C21AD108E108F10888EE880E83E0981EB5
:100F8000A11CB11CC114D104E104F10429F7DDCF87
:100F9000FF90EF90DF90CF90BF90AF909F908F9099
:100FA00008958230910538F0880F991F880F991F96
:100FB00005970197F1F70895789484B5826084BD10
:100FC00084B5816084BD85B5826085BD85B581604D
:100FD00085BDEEE6F0E0808181608083E1E8F0E0AD
:100FE0001082808182608083808181608083E0E8DC
:100FF000F0E0808181608083E1EBF0E080818460BB
:101000008083E0EBF0E0808181608083EAE7F0E0BC
:101010008081846080838081826080838081816020
:1010200080838081806880831092C100089583301E
:1010300081F028F4813099F08230A1F00895873052
:10104000A9F08830B9F08430D1F4809180008F7D90
:1010500003C0809180008F7780938000089584B5CD
:101060008F7702C084B58F7D84BD08958091B000D4
:101070008F7703C08091B0008F7D8093B00008957A
:10108000CF93DF9390E0FC01E056FF4F2491FC01E9
:10109000EC54FF4F8491882349F190E0880F991F09
:1010A000FC01E452FF4FA591B4918E529F4FFC0179
:1010B000C591D4919FB7611108C0F8948C91209587
:1010C00082238C93888182230AC0623051F4F89481
:1010D0008C91322F309583238C938881822B888347
:1010E00004C0F8948C91822B8C939FBFDF91CF9199
:1010F00008950F931F93CF93DF931F92CDB7DEB761
:10110000282F30E0F901E457FF4F8491F901E056B0
:10111000FF4F1491F901EC54FF4F04910023C9F0E3
:10112000882321F069830E9417086981E02FF0E08D
:10113000EE0FFF1FEE52FF4FA591B4919FB7F894A9
:101140008C91611103C01095812301C0812B8C9378
:101150009FBF0F90DF91CF911F910F9108950F9333
:101160001F93762F90E0FC01E056FF4F6491FC0145
:10117000EC54FF4FE4917111762FF0E0EE0FFF1F5A
:10118000E853FF4F8591949189019A013F70472F51
:101190000E949F00611571058105910531F06F5F17
:1011A0007F4F8F4F9F4F9F7003C060E070E0CB0177
:1011B0001F910F910895FC01818D228D90E0805C3C
:1011C0009F4F821B91098F7399270895FC01918D80
:1011D000828D981731F0828DE80FF11D858D90E09A
:1011E00008958FEF9FEF0895FC01918D828D9817E0
:1011F00061F0828DDF01A80FB11D5D968C91928DFB
:101200009F5F9F73928F90E008958FEF9FEF0895F7
:1012100088E79AE0892B49F080E090E0892B29F05B
:101220000E94780A81110C9400000895FC01848DBD
:10123000DF01A80FB11DA35ABF4F2C91848D90E000
:1012400001968F739927848FA689B7892C93A089DB
:10125000B1898C9180648C93938D848D981306C092
:101260000288F389E02D80818F7D80830895CF935C
:10127000DF93EC01888D8823C9F0EA89FB8980819E
:1012800085FD05C0A889B9898C9186FD0FC00FB670
:1012900007FCF5CF808185FFF2CFA889B9898C91B1
:1012A00085FFEDCFCE010E941609E7CFDF91CF91E8
:1012B0000895CF92DF92FF920F931F93CF93DF9306
:1012C0001F92CDB7DEB76C0181E0D60158968C93A2
:1012D00058975B969C915B975C968C915C97981362
:1012E00007C05096ED91FC915197808185FD2EC0ED
:1012F000F601038D10E00F5F1F4F0F731127F02EC3
:10130000F601848DF81211C00FB607FCF9CFD60193
:101310005096ED91FC915197808185FFF1CFC601E8
:1013200069830E9416096981EBCF838DE80FF11D57
:10133000E35AFF4F6083D6015B960C935B975296FE
:10134000ED91FC915397808180620CC0D601569636
:10135000ED91FC91579760835096ED91FC915197D8
:1013600080818064808381E090E00F90DF91CF9155
:101370001F910F91FF90DF90CF900895BF92CF9271
:10138000DF92EF92FF92CF93DF93EC016A017B0132
:10139000B22EE889F98982E08083411581EE5807F1
:1013A00061057105A1F060E079E08DE390E0A701AF
:1013B00096010E94F40B21503109410951095695BB
:1013C000479537952795211580E1380798F0E889EA
:1013D000F989108260E874E88EE190E0A701960137
:1013E0000E94F40B21503109410951095695479546
:1013F00037952795EC85FD853083EE85FF85208325
:10140000188EEC89FD89B082EA89FB898081806130
:101410008083EA89FB89808188608083EA89FB89EF
:10142000808180688083EA89FB8980818F7D8083C9
:10143000DF91CF91FF90EF90DF90CF90BF90089514
:101440001F920F920FB60F9211242F938F939F9399
:10145000EF93FF93E091DE01F091DF018081E09155
:10146000E401F091E50182FD12C090818091E701D5
:101470008F5F8F732091E801821751F0E091E701AF
:10148000F0E0E253FE4F958F8093E70101C0808129
:10149000FF91EF919F918F912F910F900FBE0F9021
:1014A0001F9018951F920F920FB60F9211242F9331
:1014B0003F934F935F936F937F938F939F93AF93DC
:1014C000BF93EF93FF938EEC91E00E941609FF917A
:1014D000EF91BF91AF919F918F917F916F915F91AC
:1014E0004F913F912F910F900FBE0F901F90189525
:1014F0008EEC91E00E94DB0821E0892B09F420E0CA
:10150000822F08951092D1011092D00188EE93E0BD
:10151000A0E0B0E08093D2019093D301A093D401D6
:10152000B093D50181E791E09093CF018093CE01F4
:1015300085EC90E09093DB018093DA0184EC90E0FD
:101540009093DD018093DC0180EC90E09093DF01CB
:101550008093DE0181EC90E09093E1018093E001C3
:1015600082EC90E09093E3018093E20186EC90E0BE
:101570009093E5018093E4011092E7011092E80155
:101580001092E9011092EA01089508950E94DC0783
:101590000E94C50A0E94CA02C8E0D9E00E94F60172
:1015A0002097E1F30E940809F9CFCF92DF92EF92E2
:1015B000FF920F931F93CF93DF937C016A01EB019E
:1015C00000E010E00C151D0571F06991D701ED9157
:1015D000FC910190F081E02DC7010995892B19F04C
:1015E0000F5F1F4FEFCFC801DF91CF911F910F9178
:1015F000FF90EF90DF90CF9008956115710581F015
:10160000DB010D900020E9F7AD0141505109461B67
:10161000570BDC01ED91FC910280F381E02D0994E0
:1016200080E090E008950C94FD0A6DE771E00C9461
:10163000FD0A0F931F93CF93DF93EC010E94FD0AE5
:101640008C01CE010E94150B800F911FDF91CF916D
:101650001F910F9108958F929F92AF92BF92DF9248
:10166000EF92FF920F931F93CF93DF93CDB7DEB727
:10167000A1970FB6F894DEBF0FBECDBF7C01F42F4B
:10168000D52ECB0119A2223008F42AE08E010F5D7D
:101690001F4F822E912CA12CB12C6F2F7D2DA501D7
:1016A00094010E94F40BF22FD32ECA0101501109AC
:1016B0006A3014F4E0E301C0E7E3E60FD801EC93ED
:1016C000232B242B252B49F7B801C7010E94FD0AC3
:1016D000A1960FB6F894DEBF0FBECDBFDF91CF91BC
:1016E0001F910F91FF90EF90DF90BF90AF909F9070
:1016F0008F9008952115310541F4DC01ED91FC91A5
:101700000190F081E02D642F09940C942B0B9A0129
:10171000462F50E060E070E00C947A0B089540D0C2
:1017200008F481E00895E89409C097FB3EF4909591
:101730008095709561957F4F8F4F9F4F9923A9F0AA
:10174000F92F96E9BB279395F69587957795679539
:10175000B795F111F8CFFAF4BB0F11F460FF1BC07D
:101760006F5F7F4F8F4F9F4F16C0882311F096E910
:1017700011C0772321F09EE8872F762F05C06623BE
:1017800071F096E8862F70E060E02AF09A95660F77
:10179000771F881FDAF7880F9695879597F9089530
:1017A000990F0008550FAA0BE0E8FEEF1616170672
:1017B000E807F907C0F012161306E407F50798F0DA
:1017C000621B730B840B950B39F40A2661F0232BF3
:1017D000242B252B21F408950A2609F4A140A6956F
:1017E0008FEF811D811D0895A1E21A2EAA1BBB1B3C
:1017F000FD010DC0AA1FBB1FEE1FFF1FA217B307DD
:10180000E407F50720F0A21BB30BE40BF50B661FF2
:10181000771F881F991F1A9469F7609570958095B6
:1018200090959B01AC01BD01CF010895EE0FFF1F04
:0C1830000590F491E02D0994F894FFCF8E
:10183C000900080007000600050004000300000171
:10184C00020304050607090043414E20425553206C
:10185C00536869656C6420696E6974206661696C93
:10186C000020496E69742043414E20425553205349
:10187C006869656C6420616761696E0043414E2044
:10188C0042555320536869656C6420696E697420F5
:10189C006F6B2100526561647921212100000000E9
:1018AC00005909D50ADB08F408E60837090D0A00C7
:0E18BC006E616E00696E66006F7666002E002B
:00000001FF
