:100000000C945F000C945E050C9485050C9487009D
:100010000C9487000C9487000C9487000C942D019D
:100020000C9487000C9487000C9487000C94460372
:100030000C9487000C9487000C9487000C94870024
:100040000C94AC050C9487000C9477080C94A908C8
:100050000C9487000C9487000C9487000C94870004
:100060000C9419020C9487000000000800020100A3
:100070000003040700000000000000000102040863
:100080001020408001020408102001020408102002
:10009000040404040404040402020202020203032E
:1000A0000303030300000000250028002B000000CC
:1000B0000000240027002A005101EC01D908112476
:1000C0001FBECFEFD8E0DEBFCDBF11E0A0E0B1E0B2
:1000D000EEE6F3E102C005900D92A034B107D9F726
:1000E00022E0A0E4B1E001C01D92A83DB207E1F713
:1000F00010E0CEEBD0E004C02297FE010E94B109CF
:10010000C83BD107C9F70E941D090C94B5090C948E
:10011000000080914501909146010196909346011F
:100120008093450108950F931F930E94F605009157
:100130004101109142012091430130914401601B23
:10014000710B820B930B603D774081059105B8F0F0
:100150000E94F60560934101709342018093430130
:100160009093440160E088E00E94FC068EE890E0F5
:10017000909389008093880082E0809340011F91D2
:100180000F910895A0E8B0E01C92E1E8F0E0108241
:1001900010928500109284001092890010928800BD
:1001A00010926F008C9180648C9380818A60808330
:1001B000089526E040E855E260E070E08BE392E0CD
:1001C0000E94150868E071E08BE392E00E946E09DE
:1001D000F89460ED77E080E090E00E9425060E94B0
:1001E00039050E94110561E087E00E94FC0664E683
:1001F00070E080E090E00E94250660E088E00E94C8
:10020000FC0666E070E087E491E00E949C040E9496
:10021000C2001092410110924201109243011092CB
:10022000440181E08093400168EC70E080E090E060
:100230000E9425066CED75E087E491E00E94A2041F
:1002400061E083E00E94FC0643E050E069E870E072
:1002500081E00E943E05789408951F920F920FB698
:100260000F9211242F933F934F935F936F937F933C
:100270008F939F93AF93BF93EF93FF930E94F204EA
:10028000FF91EF91BF91AF919F918F917F916F916E
:100290005F914F913F912F910F900FBE0F901F9044
:1002A000189587E491E00C9402048091790190E024
:1002B00020917A01821B9109089520917A01809101
:1002C0007901281750F4E22FF0E0E558FE4F8081C5
:1002D00090E02F5F20937A0108958FEF9FEF0895AC
:1002E000E0917A0180917901E81730F4F0E0E55867
:1002F000FE4F808190E008958FEF9FEF089508955D
:10030000CF92DF92EF92FF920F931F93CF93DF93E1
:100310007C01CB018A0120915601222389F0EB0157
:100320006B01C40ED51ECC15DD0569F06991D701AE
:10033000ED91FC910190F081E02DC7010995F3CF7B
:10034000642F0E94F001C801DF91CF911F910F919E
:10035000FF90EF90DF90CF900895CF93DF931F929F
:10036000CDB7DEB76983209156012223D1F02091C9
:100370005701203240F021E030E0FC01338322833A
:1003800080E090E015C080915801E82FF0E0E75A36
:10039000FE4F998190838F5F80935801809357011E
:1003A00005C061E0CE0101960E94F00181E090E07D
:1003B0000F90DF91CF910895FC011382128248EED5
:1003C00053E060E070E0448355836683778382E185
:1003D00091E09183808308958AE491E00C94DC019C
:1003E000613298F420910802243089F46093BD01B1
:1003F000FC018FEB91E0DC012A2F281B261718F453
:1004000021912D93F9CF80E0089581E0089582E055
:10041000089585ED8093BC008091BC0084FDFCCFE5
:1004200010920802089585EC8093BC001092080297
:1004300008951F920F920FB60F9211242F933F939E
:100440004F935F936F937F938F939F93AF93BF93DC
:10045000EF93FF938091B900887F803609F49EC0A6
:1004600078F5883209F45DC090F4803109F456C003
:1004700038F4882309F4F5C0883009F44FC0F5C07A
:10048000883109F44EC0803209F45FC0EEC0803478
:1004900009F46AC058F4803309F457C0883309F06E
:1004A000E4C080939B010E941302DFC0803509F4F1
:1004B0004FC0883509F45DC0883409F0D6C0D3C078
:1004C000883909F4C4C0A8F4883709F467C038F43F
:1004D000883609F463C0803709F460C0C6C0883824
:1004E00009F4B5C0803909F45FC0803809F0BDC097
:1004F0005BC0803B09F483C038F4803A09F466C0DD
:10050000883A09F47CC0B1C0803C09F4A4C0883C9E
:1005100009F4A1C0883B09F487C0A7C080910702F5
:1005200010C09091E0018091DF01981770F5E09183
:10053000E00181E08E0F8093E001F0E0EF51FE4F8B
:1005400080818093BB0085EC83C080939B018BC02E
:10055000E091E00181E08E0F8093E0018091BB008B
:10056000F0E0EF51FE4F80839091E0018091DF0138
:100570006BC0E091E00181E08E0F8093E0018091FB
:10058000BB00F0E0EF51FE4F8083809106028111A5
:100590006AC081E08093050284EA5EC083E08093B4
:1005A000080210929C01CFCF80919C01803208F00C
:1005B0004EC0E0919C0181E08E0F80939C01809160
:1005C000BB00F0E0E356FE4F8083BDCF0E941302D4
:1005D00080919C01803230F4E0919C01F0E0E35680
:1005E000FE4F108260919C0170E0E0910102F09159
:1005F00002028DE991E0099510929C0136C084E0D9
:10060000809308021092BE011092BD01E091030296
:10061000F091040209958091BD01811105C081E02E
:100620008093BD011092BF01E091BE0181E08E0F69
:100630008093BE01F0E0E154FE4F80818093BB00C7
:100640009091BE018091BD01981708F47CCF85E898
:100650008093BC000AC085EC8093BC001092080215
:1006600004C010929B010E940902FF91EF91BF917B
:10067000AF919F918F917F916F915F914F913F913A
:100680002F910F900FBE0F901F9018951F920F92F1
:100690000FB60F9211242F933F934F935F936F9355
:1006A0007F938F939F93AF93BF93EF93FF9380912B
:1006B0000A0287FF05C010928500109284001AC0BC
:1006C00020910A02332727FD30958091090290E09E
:1006D000281739077CF480910A02992787FD9095A5
:1006E000FC01EE0FFF1FE80FF91FE55FFD4F808152
:1006F00086FD15C080910A028F5F80930A022091C7
:100700000A02332727FD30958091090290E02817CF
:100710003907BCF480910A028C305CF112C08091E0
:100720000A02992787FD9095FC01EE0FFF1FE80F45
:10073000F91FE55FFD4F808160E08F730E94FC062A
:10074000D9CF8091840090918500049680349C4993
:1007500018F480E49CE905C08091840090918500A4
:10076000049690938900809388008FEF80930A020B
:1007700038C0209184003091850080910A02992729
:1007800087FD9095FC01EE0FFF1FE80FF91FE55F55
:10079000FD4F81819281820F931F909389008093F6
:1007A000880080910A02992787FD9095FC01EE0F41
:1007B000FF1FE80FF91FE55FFD4F808186FF11C025
:1007C00080910A02992787FD9095FC01EE0FFF1F8B
:1007D000E80FF91FE55FFD4F808161E08F730E9494
:1007E000FC06FF91EF91BF91AF919F918F917F9107
:1007F0006F915F914F913F912F910F900FBE0F908E
:100800001F901895209109022C30A0F431E0320F8E
:1008100030930902FC012083822F90E0FC01EE0F4F
:10082000FF1FE80FF91FE55FFD4F88EB9BE0928308
:10083000818308952FEFFC0120830895DF92EF92CA
:10084000FF920F931F93CF93DF93EC01D62E7A0183
:10085000890188818C3008F066C061E08D2D0E948E
:10086000C3068881A82FB0E0FD01EE0FFF1FEA0F3D
:10087000FB1FE55FFD4F2D2D2F739081907C922BF8
:10088000908360E272E06E197F0977FF02C06D5FAE
:100890007F4F7595679575956795698340E659E033
:1008A000401B510B57FF02C04D5F5F4F5595479559
:1008B000559547954A836CE00E9481099CE0899F89
:1008C000B001112420E030E0A901460F571FFA01C2
:1008D000EE0FFF1FE40FF51FE55FFD4F908196FDC2
:1008E00016C02F5F3F4F2C30310571F781110FC0BB
:1008F0001092800082E08093810010928500109217
:100900008400B19A80916F00826080936F0088812B
:1009100090E0FC01EE0FFF1FE80FF91FE55FFD4FB0
:100920008081806480838881DF91CF911F910F91B6
:10093000FF90EF90DF90089520E639E040E252E02A
:100940000C941E04FC0180818C3070F5918128E8A4
:1009500030E0291B310997FD3395220F331F220FF9
:10096000331F621773077CF0928128E532E0291B60
:10097000310997FD3395220F331F220F331F621762
:1009800073070CF49B0122503109220F331F4FB71C
:10099000F89490E0FC01EE0FFF1FE80FF91FE55FF0
:1009A000FD4F328321834FBF089580912F0283FD35
:1009B00018C0886080932F0280912F0280FF02C0B0
:1009C0008E7F09C081FF02C08D7F05C082FF02C0FB
:1009D0008B7F01C0877F80932F0280912F0283FD40
:1009E000EBCF0895909131029F5F909331028091F7
:1009F00030028F5F809330029A3041F490912F0241
:100A00009160946090932F0210923102843639F4F1
:100A100080912F02826080932F02109230020C94FA
:100A2000D504089560E083E00E94C30661E087E09A
:100A30000E94C30661E088E00E94C30661E089E08D
:100A40000C94C306A0EBB0E01C92E1EBF0E0108246
:100A50001092B2008FEF8093B3008C9182608C93E0
:100A6000808184608083E0E7F0E080818260808321
:100A700008950E9412050C94220508958230E8F42E
:100A8000E82FF0E0EE0FFF1FEC5FFE4F71836083F5
:100A9000813041F0809169008C7F842B80936900C4
:100AA000E89A089580916900440F551F440F551F1F
:100AB000837F842B80936900E99A08951F920F9297
:100AC0000FB60F9211242F933F934F935F936F9321
:100AD0007F938F939F93AF93BF93EF93FF93E09197
:100AE0000401F09105010995FF91EF91BF91AF913C
:100AF0009F918F917F916F915F914F913F912F9136
:100B00000F900FBE0F901F9018951F920F920FB667
:100B10000F9211242F933F934F935F936F937F9383
:100B20008F939F93AF93BF93EF93FF93E091060151
:100B3000F09107010995FF91EF91BF91AF919F91BE
:100B40008F917F916F915F914F913F912F910F9076
:100B50000FBE0F901F9018951F920F920FB60F9215
:100B600011242F933F938F939F93AF93BF938091C3
:100B7000330290913402A0913502B0913602309147
:100B8000320223E0230F2D3720F40196A11DB11D61
:100B900005C026E8230F0296A11DB11D2093320245
:100BA0008093330290933402A0933502B0933602BF
:100BB0008091370290913802A0913902B0913A02A7
:100BC0000196A11DB11D8093370290933802A09326
:100BD0003902B0933A02BF91AF919F918F913F91AB
:100BE0002F910F900FBE0F901F9018952FB7F8946C
:100BF00060913302709134028091350290913602F7
:100C00002FBF08953FB7F894809137029091380232
:100C1000A0913902B0913A0226B5A89B05C02F3F9A
:100C200019F00196A11DB11D3FBF6627782F892FAE
:100C30009A2F620F711D811D911D42E0660F771F73
:100C4000881F991F4A95D1F708958F929F92AF926E
:100C5000BF92CF92DF92EF92FF926B017C010E94D4
:100C600002064B015C01C114D104E104F104F1F06E
:100C70000E9480090E940206681979098A099B0965
:100C8000683E73408105910570F321E0C21AD108D6
:100C9000E108F10888EE880E83E0981EA11CB11CC3
:100CA000C114D104E104F10429F7DDCFFF90EF90E6
:100CB000DF90CF90BF90AF909F908F9008957894E1
:100CC00084B5826084BD84B5816084BD85B5826051
:100CD00085BD85B5816085BDEEE6F0E080818160EF
:100CE0008083E1E8F0E010828081826080838081EF
:100CF00081608083E0E8F0E0808181608083E1EBC7
:100D0000F0E0808184608083E0EBF0E080818160AE
:100D10008083EAE7F0E08081846080838081826064
:100D2000808380818160808380818068808310924D
:100D3000C1000895833081F028F4813099F0823029
:100D4000A1F008958730A9F08830B9F08430D1F44B
:100D5000809180008F7D03C0809180008F77809389
:100D60008000089584B58F7702C084B58F7D84BDDF
:100D700008958091B0008F7703C08091B0008F7D7F
:100D80008093B0000895CF93DF9390E0FC01E45886
:100D9000FF4F2491FC01E057FF4F8491882349F1D4
:100DA00090E0880F991FFC01E255FF4FA591B49187
:100DB0008C559F4FFC01C591D4919FB7611108C01C
:100DC000F8948C91209582238C93888182230AC089
:100DD000623051F4F8948C91322F309583238C93A8
:100DE0008881822B888304C0F8948C91822B8C9309
:100DF0009FBFDF91CF9108950F931F93CF93DF9300
:100E00001F92CDB7DEB7282F30E0F901E859FF4F28
:100E10008491F901E458FF4F1491F901E057FF4F15
:100E200004910023C9F0882321F069830E949A0667
:100E30006981E02FF0E0EE0FFF1FEC55FF4FA59109
:100E4000B4919FB7F8948C91611103C010958123E0
:100E500001C0812B8C939FBF0F90DF91CF911F9189
:100E60000F910895FC01818D228D90E0805C9F4F51
:100E7000821B91098F7399270895FC01918D828DB2
:100E8000981731F0828DE80FF11D858D90E008955F
:100E90008FEF9FEF0895FC01918D828D981761F07F
:100EA000828DDF01A80FB11D5D968C91928D9F5FA1
:100EB0009F73928F90E008958FEF9FEF08958FECCE
:100EC00098E0892B49F080E090E0892B29F00E947E
:100ED000CF0881110C9400000895FC01848DDF017E
:100EE000A80FB11DA35ABF4F2C91848D90E001969D
:100EF0008F739927848FA689B7892C93A089B1898C
:100F00008C9180648C93938D848D981306C0028895
:100F1000F389E02D80818F7D80830895CF93DF93C7
:100F2000EC01888D8823C9F0EA89FB89808185FDE1
:100F300005C0A889B9898C9186FD0FC00FB607FC42
:100F4000F5CF808185FFF2CFA889B9898C9185FF83
:100F5000EDCFCE010E946D07E7CFDF91CF910895CD
:100F6000CF92DF92FF920F931F93CF93DF931F9245
:100F7000CDB7DEB76C0181E0D60158968C935897B7
:100F80005B969C915B975C968C915C97981307C0DD
:100F90005096ED91FC915197808185FD2EC0F60110
:100FA000038D10E00F5F1F4F0F731127F02EF60116
:100FB000848DF81211C00FB607FCF9CFD6015096F8
:100FC000ED91FC915197808185FFF1CFC601698336
:100FD0000E946D076981EBCF838DE80FF11DE35A05
:100FE000FF4F6083D6015B960C935B975296ED9111
:100FF000FC915397808180620CC0D6015696ED918A
:10100000FC91579760835096ED91FC9151978081A8
:101010008064808381E090E00F90DF91CF911F91F9
:101020000F91FF90DF90CF900895BF92CF92DF9203
:10103000EF92FF92CF93DF93EC016A017B01B22E16
:10104000E889F98982E08083411581EE58076105BE
:101050007105A1F060E079E08DE390E0A7019601D1
:101060000E948D0921503109410951095695479532
:1010700037952795211580E1380798F0E889F98997
:10108000108260E874E88EE190E0A70196010E946A
:101090008D092150310941095109569547953795D8
:1010A0002795EC85FD853083EE85FF852083188E9E
:1010B000EC89FD89B082EA89FB8980818061808327
:1010C000EA89FB89808188608083EA89FB89808145
:1010D00080688083EA89FB8980818F7D8083DF91AE
:1010E000CF91FF90EF90DF90CF90BF9008951F9227
:1010F0000F920FB60F9211242F938F939F93EF931C
:10110000FF93E0914B02F0914C028081E0915102FB
:10111000F091520282FD12C09081809154028F5F43
:101120008F7320915502821751F0E0915402F0E044
:10113000E55CFD4F958F8093540201C08081FF9143
:10114000EF919F918F912F910F900FBE0F901F9055
:1011500018951F920F920FB60F9211242F933F9361
:101160004F935F936F937F938F939F93AF93BF93AF
:10117000EF93FF938BE392E00E946D07FF91EF9155
:10118000BF91AF919F918F917F916F915F914F919F
:101190003F912F910F900FBE0F901F9018958BE3EA
:1011A00092E00E94320721E0892B09F420E0822F8F
:1011B000089510923E0210923D0288EE93E0A0E066
:1011C000B0E080933F0290934002A0934102B0931D
:1011D000420282E291E090933C0280933B0285ECD4
:1011E00090E0909348028093470284EC90E09093C3
:1011F0004A028093490280EC90E090934C028093E5
:101200004B0281EC90E090934E0280934D0282EC71
:1012100090E09093500280934F0286EC90E0909380
:101220005202809351021092540210925502109271
:10123000560210925702089508950E945F060E9478
:101240001C090E94D900CFE5D7E00E9493002097A7
:10125000E1F30E945F07F9CFCF92DF92EF92FF9206
:101260000F931F93CF93DF937C016A01EB0100E0A2
:1012700010E00C151D0571F06991D701ED91FC91FD
:101280000190F081E02DC7010995892B19F00F5FBE
:101290001F4FEFCFC801DF91CF911F910F91FF90AA
:1012A000EF90DF90CF9008956115710581F0DB011B
:1012B0000D900020E9F7AD0141505109461B570B35
:1012C000DC01ED91FC910280F381E02D099480E036
:1012D00090E008956EE271E00C9454090F931F930F
:1012E000CF93DF93EC010E9454098C01CE010E9440
:1012F0006A09800F911FDF91CF911F910F9108957F
:101300000895991B79E004C0991F961708F0961B61
:10131000881F7A95C9F780950895A1E21A2EAA1B15
:10132000BB1BFD010DC0AA1FBB1FEE1FFF1FA21795
:10133000B307E407F50720F0A21BB30BE40BF50B92
:10134000661F771F881F991F1A9469F7609570951B
:10135000809590959B01AC01BD01CF010895EE0FE2
:0E136000FF1F0590F491E02D0994F894FFCF43
:10136E00010000003D053D055374617274000000DC
:10137E000000AD01800155015D0170017F0100008B
:10138E000000B0072C0932074B073D078E070D0AE8
:10139E00006E616E00696E66006F7666002E00004C
:00000001FF
